{
  "address": "0x5FbDB2315678afecb367f032d93F642f64180aa3",
  "abi": [
    {
      "inputs": [],
      "stateMutability": "nonpayable",
      "type": "constructor"
    },
    {
      "anonymous": false,
      "inputs": [
        {
          "indexed": true,
          "internalType": "address",
          "name": "owner",
          "type": "address"
        },
        {
          "indexed": true,
          "internalType": "address",
          "name": "approved",
          "type": "address"
        },
        {
          "indexed": true,
          "internalType": "uint256",
          "name": "tokenId",
          "type": "uint256"
        }
      ],
      "name": "Approval",
      "type": "event"
    },
    {
      "anonymous": false,
      "inputs": [
        {
          "indexed": true,
          "internalType": "address",
          "name": "owner",
          "type": "address"
        },
        {
          "indexed": true,
          "internalType": "address",
          "name": "operator",
          "type": "address"
        },
        {
          "indexed": false,
          "internalType": "bool",
          "name": "approved",
          "type": "bool"
        }
      ],
      "name": "ApprovalForAll",
      "type": "event"
    },
    {
      "anonymous": false,
      "inputs": [
        {
          "indexed": true,
          "internalType": "address",
          "name": "previousOwner",
          "type": "address"
        },
        {
          "indexed": true,
          "internalType": "address",
          "name": "newOwner",
          "type": "address"
        }
      ],
      "name": "OwnershipTransferred",
      "type": "event"
    },
    {
      "anonymous": false,
      "inputs": [
        {
          "indexed": true,
          "internalType": "address",
          "name": "from",
          "type": "address"
        },
        {
          "indexed": true,
          "internalType": "address",
          "name": "to",
          "type": "address"
        },
        {
          "indexed": true,
          "internalType": "uint256",
          "name": "tokenId",
          "type": "uint256"
        }
      ],
      "name": "Transfer",
      "type": "event"
    },
    {
      "inputs": [
        {
          "internalType": "address",
          "name": "to",
          "type": "address"
        },
        {
          "internalType": "uint256",
          "name": "tokenId",
          "type": "uint256"
        }
      ],
      "name": "approve",
      "outputs": [],
      "stateMutability": "nonpayable",
      "type": "function"
    },
    {
      "inputs": [
        {
          "internalType": "address",
          "name": "owner",
          "type": "address"
        }
      ],
      "name": "balanceOf",
      "outputs": [
        {
          "internalType": "uint256",
          "name": "",
          "type": "uint256"
        }
      ],
      "stateMutability": "view",
      "type": "function"
    },
    {
      "inputs": [
        {
          "internalType": "uint256",
          "name": "tokenId",
          "type": "uint256"
        }
      ],
      "name": "burn",
      "outputs": [],
      "stateMutability": "nonpayable",
      "type": "function"
    },
    {
      "inputs": [
        {
          "internalType": "uint256",
          "name": "tokenId",
          "type": "uint256"
        }
      ],
      "name": "geoJson",
      "outputs": [
        {
          "internalType": "string",
          "name": "",
          "type": "string"
        }
      ],
      "stateMutability": "view",
      "type": "function"
    },
    {
      "inputs": [
        {
          "internalType": "uint256",
          "name": "tokenId",
          "type": "uint256"
        }
      ],
      "name": "getApproved",
      "outputs": [
        {
          "internalType": "address",
          "name": "",
          "type": "address"
        }
      ],
      "stateMutability": "view",
      "type": "function"
    },
    {
      "inputs": [
        {
          "internalType": "uint256",
          "name": "_tokenId",
          "type": "uint256"
        }
      ],
      "name": "getEcologicalIndex",
      "outputs": [
        {
          "components": [
            {
              "internalType": "string",
              "name": "indexType",
              "type": "string"
            },
            {
              "internalType": "int256",
              "name": "indexValue",
              "type": "int256"
            }
          ],
          "internalType": "struct GeoNFT.EcologicalIndex",
          "name": "",
          "type": "tuple"
        }
      ],
      "stateMutability": "view",
      "type": "function"
    },
    {
      "inputs": [
        {
          "internalType": "address",
          "name": "owner",
          "type": "address"
        }
      ],
      "name": "getTokensByOwner",
      "outputs": [
        {
          "internalType": "uint256[]",
          "name": "",
          "type": "uint256[]"
        },
        {
          "internalType": "string[]",
          "name": "",
          "type": "string[]"
        },
        {
          "internalType": "string[]",
          "name": "",
          "type": "string[]"
        }
      ],
      "stateMutability": "view",
      "type": "function"
    },
    {
      "inputs": [
        {
          "internalType": "address",
          "name": "owner",
          "type": "address"
        },
        {
          "internalType": "address",
          "name": "operator",
          "type": "address"
        }
      ],
      "name": "isApprovedForAll",
      "outputs": [
        {
          "internalType": "bool",
          "name": "",
          "type": "bool"
        }
      ],
      "stateMutability": "view",
      "type": "function"
    },
    {
      "inputs": [],
      "name": "name",
      "outputs": [
        {
          "internalType": "string",
          "name": "",
          "type": "string"
        }
      ],
      "stateMutability": "view",
      "type": "function"
    },
    {
      "inputs": [],
      "name": "owner",
      "outputs": [
        {
          "internalType": "address",
          "name": "",
          "type": "address"
        }
      ],
      "stateMutability": "view",
      "type": "function"
    },
    {
      "inputs": [
        {
          "internalType": "uint256",
          "name": "tokenId",
          "type": "uint256"
        }
      ],
      "name": "ownerOf",
      "outputs": [
        {
          "internalType": "address",
          "name": "",
          "type": "address"
        }
      ],
      "stateMutability": "view",
      "type": "function"
    },
    {
      "inputs": [],
      "name": "renounceOwnership",
      "outputs": [],
      "stateMutability": "nonpayable",
      "type": "function"
    },
    {
      "inputs": [
        {
          "internalType": "address",
          "name": "to",
          "type": "address"
        },
        {
          "internalType": "string",
          "name": "uri",
          "type": "string"
        },
        {
          "internalType": "string",
          "name": "_geoJson",
          "type": "string"
        }
      ],
      "name": "safeMint",
      "outputs": [],
      "stateMutability": "nonpayable",
      "type": "function"
    },
    {
      "inputs": [
        {
          "internalType": "address",
          "name": "from",
          "type": "address"
        },
        {
          "internalType": "address",
          "name": "to",
          "type": "address"
        },
        {
          "internalType": "uint256",
          "name": "tokenId",
          "type": "uint256"
        }
      ],
      "name": "safeTransferFrom",
      "outputs": [],
      "stateMutability": "nonpayable",
      "type": "function"
    },
    {
      "inputs": [
        {
          "internalType": "address",
          "name": "from",
          "type": "address"
        },
        {
          "internalType": "address",
          "name": "to",
          "type": "address"
        },
        {
          "internalType": "uint256",
          "name": "tokenId",
          "type": "uint256"
        },
        {
          "internalType": "bytes",
          "name": "_data",
          "type": "bytes"
        }
      ],
      "name": "safeTransferFrom",
      "outputs": [],
      "stateMutability": "nonpayable",
      "type": "function"
    },
    {
      "inputs": [
        {
          "internalType": "address",
          "name": "operator",
          "type": "address"
        },
        {
          "internalType": "bool",
          "name": "approved",
          "type": "bool"
        }
      ],
      "name": "setApprovalForAll",
      "outputs": [],
      "stateMutability": "nonpayable",
      "type": "function"
    },
    {
      "inputs": [
        {
          "internalType": "uint256",
          "name": "_tokenId",
          "type": "uint256"
        },
        {
          "internalType": "string",
          "name": "_indexType",
          "type": "string"
        },
        {
          "internalType": "int256",
          "name": "_indexValue",
          "type": "int256"
        }
      ],
      "name": "setEcologicalIndex",
      "outputs": [],
      "stateMutability": "nonpayable",
      "type": "function"
    },
    {
      "inputs": [
        {
          "internalType": "uint256",
          "name": "tokenId",
          "type": "uint256"
        },
        {
          "internalType": "string",
          "name": "_geoJson",
          "type": "string"
        }
      ],
      "name": "setGeoJson",
      "outputs": [],
      "stateMutability": "nonpayable",
      "type": "function"
    },
    {
      "inputs": [
        {
          "internalType": "uint256",
          "name": "tokenId",
          "type": "uint256"
        },
        {
          "internalType": "string",
          "name": "uri",
          "type": "string"
        }
      ],
      "name": "setTokenURI",
      "outputs": [],
      "stateMutability": "nonpayable",
      "type": "function"
    },
    {
      "inputs": [
        {
          "internalType": "bytes4",
          "name": "interfaceId",
          "type": "bytes4"
        }
      ],
      "name": "supportsInterface",
      "outputs": [
        {
          "internalType": "bool",
          "name": "",
          "type": "bool"
        }
      ],
      "stateMutability": "view",
      "type": "function"
    },
    {
      "inputs": [],
      "name": "symbol",
      "outputs": [
        {
          "internalType": "string",
          "name": "",
          "type": "string"
        }
      ],
      "stateMutability": "view",
      "type": "function"
    },
    {
      "inputs": [
        {
          "internalType": "uint256",
          "name": "index",
          "type": "uint256"
        }
      ],
      "name": "tokenByIndex",
      "outputs": [
        {
          "internalType": "uint256",
          "name": "",
          "type": "uint256"
        }
      ],
      "stateMutability": "view",
      "type": "function"
    },
    {
      "inputs": [
        {
          "internalType": "address",
          "name": "owner",
          "type": "address"
        },
        {
          "internalType": "uint256",
          "name": "index",
          "type": "uint256"
        }
      ],
      "name": "tokenOfOwnerByIndex",
      "outputs": [
        {
          "internalType": "uint256",
          "name": "",
          "type": "uint256"
        }
      ],
      "stateMutability": "view",
      "type": "function"
    },
    {
      "inputs": [
        {
          "internalType": "uint256",
          "name": "tokenId",
          "type": "uint256"
        }
      ],
      "name": "tokenURI",
      "outputs": [
        {
          "internalType": "string",
          "name": "",
          "type": "string"
        }
      ],
      "stateMutability": "view",
      "type": "function"
    },
    {
      "inputs": [],
      "name": "totalSupply",
      "outputs": [
        {
          "internalType": "uint256",
          "name": "",
          "type": "uint256"
        }
      ],
      "stateMutability": "view",
      "type": "function"
    },
    {
      "inputs": [
        {
          "internalType": "address",
          "name": "from",
          "type": "address"
        },
        {
          "internalType": "address",
          "name": "to",
          "type": "address"
        },
        {
          "internalType": "uint256",
          "name": "tokenId",
          "type": "uint256"
        }
      ],
      "name": "transferFrom",
      "outputs": [],
      "stateMutability": "nonpayable",
      "type": "function"
    },
    {
      "inputs": [
        {
          "internalType": "address",
          "name": "newOwner",
          "type": "address"
        }
      ],
      "name": "transferOwnership",
      "outputs": [],
      "stateMutability": "nonpayable",
      "type": "function"
    }
  ],
  "transactionHash": "0x7663539a196e0bf199bbf4c179b3b427345fd81f5e707c929be1b31b359b193a",
  "args": [],
  "numDeployments": 1,
  "solcInputHash": "384cd3ee43feb2addba43d6a4e627cb8",
  "bytecode": "0x60806040523480156200001157600080fd5b506040518060400160405280600d81526020017f47454f4e4654204d696e746572000000000000000000000000000000000000008152506040518060400160405280600681526020017f47454f4e46540000000000000000000000000000000000000000000000000000815250816000908051906020019062000096929190620001a6565b508060019080519060200190620000af929190620001a6565b505050620000d2620000c6620000d860201b60201c565b620000e060201b60201c565b620002ba565b600033905090565b6000600b60009054906101000a900473ffffffffffffffffffffffffffffffffffffffff16905081600b60006101000a81548173ffffffffffffffffffffffffffffffffffffffff021916908373ffffffffffffffffffffffffffffffffffffffff1602179055508173ffffffffffffffffffffffffffffffffffffffff168173ffffffffffffffffffffffffffffffffffffffff167f8be0079c531659141344cd1fd0a4f28419497f9722a3daafe3b4186f6b6457e060405160405180910390a35050565b828054620001b49062000285565b90600052602060002090601f016020900481019282620001d8576000855562000224565b82601f10620001f357805160ff191683800117855562000224565b8280016001018555821562000224579182015b828111156200022357825182559160200191906001019062000206565b5b50905062000233919062000237565b5090565b5b808211156200025257600081600090555060010162000238565b5090565b7f4e487b7100000000000000000000000000000000000000000000000000000000600052602260045260246000fd5b600060028204905060018216806200029e57607f821691505b602082108103620002b457620002b362000256565b5b50919050565b61460d80620002ca6000396000f3fe608060405234801561001057600080fd5b50600436106101a95760003560e01c80634f6ccce7116100f9578063a22cb46511610097578063e985e9c511610071578063e985e9c5146104f2578063eca81d4214610522578063f2fde38b1461053e578063f31eb4501461055a576101a9565b8063a22cb4651461048a578063b88d4fde146104a6578063c87b56dd146104c2576101a9565b8063715018a6116100d3578063715018a6146104145780638da5cb5b1461041e57806395d89b411461043c5780639d2b6fb01461045a576101a9565b80634f6ccce7146103845780636352211e146103b457806370a08231146103e4576101a9565b806318160ddd116101665780632f745c59116101405780632f745c59146102ea57806340398d671461031a57806342842e0e1461034c57806342966c6814610368576101a9565b806318160ddd14610280578063219144a01461029e57806323b872dd146102ce576101a9565b806301ffc9a7146101ae57806306fdde03146101de578063081812fc146101fc578063095ea7b31461022c578063162094c41461024857806317fc277b14610264575b600080fd5b6101c860048036038101906101c39190612cda565b610576565b6040516101d59190612d22565b60405180910390f35b6101e6610588565b6040516101f39190612dd6565b60405180910390f35b61021660048036038101906102119190612e2e565b61061a565b6040516102239190612e9c565b60405180910390f35b61024660048036038101906102419190612ee3565b61069f565b005b610262600480360381019061025d9190613058565b6107b6565b005b61027e600480360381019061027991906130ea565b610840565b005b6102886108fb565b6040516102959190613168565b60405180910390f35b6102b860048036038101906102b39190612e2e565b610908565b6040516102c59190612dd6565b60405180910390f35b6102e860048036038101906102e39190613183565b6109b3565b005b61030460048036038101906102ff9190612ee3565b610a13565b6040516103119190613168565b60405180910390f35b610334600480360381019061032f91906131d6565b610ab8565b604051610343939291906133cd565b60405180910390f35b61036660048036038101906103619190613183565b610d2c565b005b610382600480360381019061037d9190612e2e565b610d4c565b005b61039e60048036038101906103999190612e2e565b610da8565b6040516103ab9190613168565b60405180910390f35b6103ce60048036038101906103c99190612e2e565b610e19565b6040516103db9190612e9c565b60405180910390f35b6103fe60048036038101906103f991906131d6565b610eca565b60405161040b9190613168565b60405180910390f35b61041c610f81565b005b610426611009565b6040516104339190612e9c565b60405180910390f35b610444611033565b6040516104519190612dd6565b60405180910390f35b610474600480360381019061046f9190612e2e565b6110c5565b6040516104819190613465565b60405180910390f35b6104a4600480360381019061049f91906134b3565b61118e565b005b6104c060048036038101906104bb9190613594565b6111a4565b005b6104dc60048036038101906104d79190612e2e565b611206565b6040516104e99190612dd6565b60405180910390f35b61050c60048036038101906105079190613617565b611218565b6040516105199190612d22565b60405180910390f35b61053c60048036038101906105379190613657565b6112ac565b005b610558600480360381019061055391906131d6565b611394565b005b610574600480360381019061056f9190613058565b61148b565b005b600061058182611533565b9050919050565b60606000805461059790613711565b80601f01602080910402602001604051908101604052809291908181526020018280546105c390613711565b80156106105780601f106105e557610100808354040283529160200191610610565b820191906000526020600020905b8154815290600101906020018083116105f357829003601f168201915b5050505050905090565b6000610625826115ad565b610664576040517f08c379a000000000000000000000000000000000000000000000000000000000815260040161065b906137b4565b60405180910390fd5b6004600083815260200190815260200160002060009054906101000a900473ffffffffffffffffffffffffffffffffffffffff169050919050565b60006106aa82610e19565b90508073ffffffffffffffffffffffffffffffffffffffff168373ffffffffffffffffffffffffffffffffffffffff160361071a576040517f08c379a000000000000000000000000000000000000000000000000000000000815260040161071190613846565b60405180910390fd5b8073ffffffffffffffffffffffffffffffffffffffff16610739611619565b73ffffffffffffffffffffffffffffffffffffffff161480610768575061076781610762611619565b611218565b5b6107a7576040517f08c379a000000000000000000000000000000000000000000000000000000000815260040161079e906138d8565b60405180910390fd5b6107b18383611621565b505050565b6107be611619565b73ffffffffffffffffffffffffffffffffffffffff166107dc611009565b73ffffffffffffffffffffffffffffffffffffffff1614610832576040517f08c379a000000000000000000000000000000000000000000000000000000000815260040161082990613944565b60405180910390fd5b61083c82826116da565b5050565b610848611619565b73ffffffffffffffffffffffffffffffffffffffff16610866611009565b73ffffffffffffffffffffffffffffffffffffffff16146108bc576040517f08c379a00000000000000000000000000000000000000000000000000000000081526004016108b390613944565b60405180910390fd5b6000600e60008581526020019081526020016000209050828160000190805190602001906108eb929190612b71565b5081816001018190555050505050565b6000600880549050905090565b60606000600d6000848152602001908152602001600020805461092a90613711565b80601f016020809104026020016040519081016040528092919081815260200182805461095690613711565b80156109a35780601f10610978576101008083540402835291602001916109a3565b820191906000526020600020905b81548152906001019060200180831161098657829003601f168201915b5050505050905080915050919050565b6109c46109be611619565b8261174e565b610a03576040517f08c379a00000000000000000000000000000000000000000000000000000000081526004016109fa906139d6565b60405180910390fd5b610a0e83838361182c565b505050565b6000610a1e83610eca565b8210610a5f576040517f08c379a0000000000000000000000000000000000000000000000000000000008152600401610a5690613a68565b60405180910390fd5b600660008473ffffffffffffffffffffffffffffffffffffffff1673ffffffffffffffffffffffffffffffffffffffff168152602001908152602001600020600083815260200190815260200160002054905092915050565b60608060606000610ac885610eca565b905060008167ffffffffffffffff811115610ae657610ae5612f2d565b5b604051908082528060200260200182016040528015610b145781602001602082028036833780820191505090505b50905060008267ffffffffffffffff811115610b3357610b32612f2d565b5b604051908082528060200260200182016040528015610b6657816020015b6060815260200190600190039081610b515790505b50905060008367ffffffffffffffff811115610b8557610b84612f2d565b5b604051908082528060200260200182016040528015610bb857816020015b6060815260200190600190039081610ba35790505b50905060005b84811015610d1757610bd08982610a13565b848281518110610be357610be2613a88565b5b602002602001018181525050610c12848281518110610c0557610c04613a88565b5b6020026020010151611206565b838281518110610c2557610c24613a88565b5b6020026020010181905250600d6000858381518110610c4757610c46613a88565b5b602002602001015181526020019081526020016000208054610c6890613711565b80601f0160208091040260200160405190810160405280929190818152602001828054610c9490613711565b8015610ce15780601f10610cb657610100808354040283529160200191610ce1565b820191906000526020600020905b815481529060010190602001808311610cc457829003601f168201915b5050505050828281518110610cf957610cf8613a88565b5b60200260200101819052508080610d0f90613ae6565b915050610bbe565b83838397509750975050505050509193909250565b610d47838383604051806020016040528060008152506111a4565b505050565b610d5d610d57611619565b8261174e565b610d9c576040517f08c379a0000000000000000000000000000000000000000000000000000000008152600401610d9390613ba0565b60405180910390fd5b610da581611a87565b50565b6000610db26108fb565b8210610df3576040517f08c379a0000000000000000000000000000000000000000000000000000000008152600401610dea90613c32565b60405180910390fd5b60088281548110610e0757610e06613a88565b5b90600052602060002001549050919050565b6000806002600084815260200190815260200160002060009054906101000a900473ffffffffffffffffffffffffffffffffffffffff169050600073ffffffffffffffffffffffffffffffffffffffff168173ffffffffffffffffffffffffffffffffffffffff1603610ec1576040517f08c379a0000000000000000000000000000000000000000000000000000000008152600401610eb890613cc4565b60405180910390fd5b80915050919050565b60008073ffffffffffffffffffffffffffffffffffffffff168273ffffffffffffffffffffffffffffffffffffffff1603610f3a576040517f08c379a0000000000000000000000000000000000000000000000000000000008152600401610f3190613d56565b60405180910390fd5b600360008373ffffffffffffffffffffffffffffffffffffffff1673ffffffffffffffffffffffffffffffffffffffff168152602001908152602001600020549050919050565b610f89611619565b73ffffffffffffffffffffffffffffffffffffffff16610fa7611009565b73ffffffffffffffffffffffffffffffffffffffff1614610ffd576040517f08c379a0000000000000000000000000000000000000000000000000000000008152600401610ff490613944565b60405180910390fd5b6110076000611a93565b565b6000600b60009054906101000a900473ffffffffffffffffffffffffffffffffffffffff16905090565b60606001805461104290613711565b80601f016020809104026020016040519081016040528092919081815260200182805461106e90613711565b80156110bb5780601f10611090576101008083540402835291602001916110bb565b820191906000526020600020905b81548152906001019060200180831161109e57829003601f168201915b5050505050905090565b6110cd612bf7565b600e60008381526020019081526020016000206040518060400160405290816000820180546110fb90613711565b80601f016020809104026020016040519081016040528092919081815260200182805461112790613711565b80156111745780601f1061114957610100808354040283529160200191611174565b820191906000526020600020905b81548152906001019060200180831161115757829003601f168201915b505050505081526020016001820154815250509050919050565b6111a0611199611619565b8383611b59565b5050565b6111b56111af611619565b8361174e565b6111f4576040517f08c379a00000000000000000000000000000000000000000000000000000000081526004016111eb906139d6565b60405180910390fd5b61120084848484611cc5565b50505050565b606061121182611d21565b9050919050565b6000600560008473ffffffffffffffffffffffffffffffffffffffff1673ffffffffffffffffffffffffffffffffffffffff16815260200190815260200160002060008373ffffffffffffffffffffffffffffffffffffffff1673ffffffffffffffffffffffffffffffffffffffff16815260200190815260200160002060009054906101000a900460ff16905092915050565b60006112b8600c611e72565b90506112c4600c611e80565b81600d600083815260200190815260200160002090805190602001906112eb929190612b71565b50600060405180604001604052806040518060400160405280600781526020017f617265615f6d320000000000000000000000000000000000000000000000000081525081526020016000815250905080600e6000848152602001908152602001600020600082015181600001908051906020019061136b929190612b71565b50602082015181600101559050506113838583611e96565b61138d82856116da565b5050505050565b61139c611619565b73ffffffffffffffffffffffffffffffffffffffff166113ba611009565b73ffffffffffffffffffffffffffffffffffffffff1614611410576040517f08c379a000000000000000000000000000000000000000000000000000000000815260040161140790613944565b60405180910390fd5b600073ffffffffffffffffffffffffffffffffffffffff168173ffffffffffffffffffffffffffffffffffffffff160361147f576040517f08c379a000000000000000000000000000000000000000000000000000000000815260040161147690613de8565b60405180910390fd5b61148881611a93565b50565b611493611619565b73ffffffffffffffffffffffffffffffffffffffff166114b1611009565b73ffffffffffffffffffffffffffffffffffffffff1614611507576040517f08c379a00000000000000000000000000000000000000000000000000000000081526004016114fe90613944565b60405180910390fd5b80600d6000848152602001908152602001600020908051906020019061152e929190612b71565b505050565b60007f780e9d63000000000000000000000000000000000000000000000000000000007bffffffffffffffffffffffffffffffffffffffffffffffffffffffff1916827bffffffffffffffffffffffffffffffffffffffffffffffffffffffff191614806115a657506115a582611eb4565b5b9050919050565b60008073ffffffffffffffffffffffffffffffffffffffff166002600084815260200190815260200160002060009054906101000a900473ffffffffffffffffffffffffffffffffffffffff1673ffffffffffffffffffffffffffffffffffffffff1614159050919050565b600033905090565b816004600083815260200190815260200160002060006101000a81548173ffffffffffffffffffffffffffffffffffffffff021916908373ffffffffffffffffffffffffffffffffffffffff160217905550808273ffffffffffffffffffffffffffffffffffffffff1661169483610e19565b73ffffffffffffffffffffffffffffffffffffffff167f8c5be1e5ebec7d5bd14f71427d1e84f3dd0314c0f7b2291e5b200ac8c7c3b92560405160405180910390a45050565b6116e3826115ad565b611722576040517f08c379a000000000000000000000000000000000000000000000000000000000815260040161171990613e7a565b60405180910390fd5b80600a60008481526020019081526020016000209080519060200190611749929190612b71565b505050565b6000611759826115ad565b611798576040517f08c379a000000000000000000000000000000000000000000000000000000000815260040161178f90613f0c565b60405180910390fd5b60006117a383610e19565b90508073ffffffffffffffffffffffffffffffffffffffff168473ffffffffffffffffffffffffffffffffffffffff16148061181257508373ffffffffffffffffffffffffffffffffffffffff166117fa8461061a565b73ffffffffffffffffffffffffffffffffffffffff16145b8061182357506118228185611218565b5b91505092915050565b8273ffffffffffffffffffffffffffffffffffffffff1661184c82610e19565b73ffffffffffffffffffffffffffffffffffffffff16146118a2576040517f08c379a000000000000000000000000000000000000000000000000000000000815260040161189990613f9e565b60405180910390fd5b600073ffffffffffffffffffffffffffffffffffffffff168273ffffffffffffffffffffffffffffffffffffffff1603611911576040517f08c379a000000000000000000000000000000000000000000000000000000000815260040161190890614030565b60405180910390fd5b61191c838383611f96565b611927600082611621565b6001600360008573ffffffffffffffffffffffffffffffffffffffff1673ffffffffffffffffffffffffffffffffffffffff16815260200190815260200160002060008282546119779190614050565b925050819055506001600360008473ffffffffffffffffffffffffffffffffffffffff1673ffffffffffffffffffffffffffffffffffffffff16815260200190815260200160002060008282546119ce9190614084565b92505081905550816002600083815260200190815260200160002060006101000a81548173ffffffffffffffffffffffffffffffffffffffff021916908373ffffffffffffffffffffffffffffffffffffffff160217905550808273ffffffffffffffffffffffffffffffffffffffff168473ffffffffffffffffffffffffffffffffffffffff167fddf252ad1be2c89b69c2b068fc378daa952ba7f163c4a11628f55a4df523b3ef60405160405180910390a4505050565b611a9081611fa6565b50565b6000600b60009054906101000a900473ffffffffffffffffffffffffffffffffffffffff16905081600b60006101000a81548173ffffffffffffffffffffffffffffffffffffffff021916908373ffffffffffffffffffffffffffffffffffffffff1602179055508173ffffffffffffffffffffffffffffffffffffffff168173ffffffffffffffffffffffffffffffffffffffff167f8be0079c531659141344cd1fd0a4f28419497f9722a3daafe3b4186f6b6457e060405160405180910390a35050565b8173ffffffffffffffffffffffffffffffffffffffff168373ffffffffffffffffffffffffffffffffffffffff1603611bc7576040517f08c379a0000000000000000000000000000000000000000000000000000000008152600401611bbe90614126565b60405180910390fd5b80600560008573ffffffffffffffffffffffffffffffffffffffff1673ffffffffffffffffffffffffffffffffffffffff16815260200190815260200160002060008473ffffffffffffffffffffffffffffffffffffffff1673ffffffffffffffffffffffffffffffffffffffff16815260200190815260200160002060006101000a81548160ff0219169083151502179055508173ffffffffffffffffffffffffffffffffffffffff168373ffffffffffffffffffffffffffffffffffffffff167f17307eab39ab6107e8899845ad3d59bd9653f200f220920489ca2b5937696c3183604051611cb89190612d22565b60405180910390a3505050565b611cd084848461182c565b611cdc84848484611ff9565b611d1b576040517f08c379a0000000000000000000000000000000000000000000000000000000008152600401611d12906141b8565b60405180910390fd5b50505050565b6060611d2c826115ad565b611d6b576040517f08c379a0000000000000000000000000000000000000000000000000000000008152600401611d629061424a565b60405180910390fd5b6000600a60008481526020019081526020016000208054611d8b90613711565b80601f0160208091040260200160405190810160405280929190818152602001828054611db790613711565b8015611e045780601f10611dd957610100808354040283529160200191611e04565b820191906000526020600020905b815481529060010190602001808311611de757829003601f168201915b505050505090506000611e15612180565b90506000815103611e2a578192505050611e6d565b600082511115611e5f578082604051602001611e479291906142a6565b60405160208183030381529060405292505050611e6d565b611e6884612197565b925050505b919050565b600081600001549050919050565b6001816000016000828254019250508190555050565b611eb082826040518060200160405280600081525061223e565b5050565b60007f80ac58cd000000000000000000000000000000000000000000000000000000007bffffffffffffffffffffffffffffffffffffffffffffffffffffffff1916827bffffffffffffffffffffffffffffffffffffffffffffffffffffffff19161480611f7f57507f5b5e139f000000000000000000000000000000000000000000000000000000007bffffffffffffffffffffffffffffffffffffffffffffffffffffffff1916827bffffffffffffffffffffffffffffffffffffffffffffffffffffffff1916145b80611f8f5750611f8e82612299565b5b9050919050565b611fa1838383612303565b505050565b611faf81612415565b6000600a60008381526020019081526020016000208054611fcf90613711565b905014611ff657600a60008281526020019081526020016000206000611ff59190612c11565b5b50565b600061201a8473ffffffffffffffffffffffffffffffffffffffff16612526565b15612173578373ffffffffffffffffffffffffffffffffffffffff1663150b7a02612043611619565b8786866040518563ffffffff1660e01b8152600401612065949392919061431f565b6020604051808303816000875af19250505080156120a157506040513d601f19601f8201168201806040525081019061209e9190614380565b60015b612123573d80600081146120d1576040519150601f19603f3d011682016040523d82523d6000602084013e6120d6565b606091505b50600081510361211b576040517f08c379a0000000000000000000000000000000000000000000000000000000008152600401612112906141b8565b60405180910390fd5b805181602001fd5b63150b7a0260e01b7bffffffffffffffffffffffffffffffffffffffffffffffffffffffff1916817bffffffffffffffffffffffffffffffffffffffffffffffffffffffff191614915050612178565b600190505b949350505050565b606060405180602001604052806000815250905090565b60606121a2826115ad565b6121e1576040517f08c379a00000000000000000000000000000000000000000000000000000000081526004016121d89061441f565b60405180910390fd5b60006121eb612180565b9050600081511161220b5760405180602001604052806000815250612236565b8061221584612539565b6040516020016122269291906142a6565b6040516020818303038152906040525b915050919050565b6122488383612699565b6122556000848484611ff9565b612294576040517f08c379a000000000000000000000000000000000000000000000000000000000815260040161228b906141b8565b60405180910390fd5b505050565b60007f01ffc9a7000000000000000000000000000000000000000000000000000000007bffffffffffffffffffffffffffffffffffffffffffffffffffffffff1916827bffffffffffffffffffffffffffffffffffffffffffffffffffffffff1916149050919050565b61230e838383612866565b600073ffffffffffffffffffffffffffffffffffffffff168373ffffffffffffffffffffffffffffffffffffffff16036123505761234b8161286b565b61238f565b8173ffffffffffffffffffffffffffffffffffffffff168373ffffffffffffffffffffffffffffffffffffffff161461238e5761238d83826128b4565b5b5b600073ffffffffffffffffffffffffffffffffffffffff168273ffffffffffffffffffffffffffffffffffffffff16036123d1576123cc81612a21565b612410565b8273ffffffffffffffffffffffffffffffffffffffff168273ffffffffffffffffffffffffffffffffffffffff161461240f5761240e8282612af2565b5b5b505050565b600061242082610e19565b905061242e81600084611f96565b612439600083611621565b6001600360008373ffffffffffffffffffffffffffffffffffffffff1673ffffffffffffffffffffffffffffffffffffffff16815260200190815260200160002060008282546124899190614050565b925050819055506002600083815260200190815260200160002060006101000a81549073ffffffffffffffffffffffffffffffffffffffff021916905581600073ffffffffffffffffffffffffffffffffffffffff168273ffffffffffffffffffffffffffffffffffffffff167fddf252ad1be2c89b69c2b068fc378daa952ba7f163c4a11628f55a4df523b3ef60405160405180910390a45050565b600080823b905060008111915050919050565b606060008203612580576040518060400160405280600181526020017f30000000000000000000000000000000000000000000000000000000000000008152509050612694565b600082905060005b600082146125b257808061259b90613ae6565b915050600a826125ab919061446e565b9150612588565b60008167ffffffffffffffff8111156125ce576125cd612f2d565b5b6040519080825280601f01601f1916602001820160405280156126005781602001600182028036833780820191505090505b5090505b6000851461268d576001826126199190614050565b9150600a85612628919061449f565b60306126349190614084565b60f81b81838151811061264a57612649613a88565b5b60200101907effffffffffffffffffffffffffffffffffffffffffffffffffffffffffffff1916908160001a905350600a85612686919061446e565b9450612604565b8093505050505b919050565b600073ffffffffffffffffffffffffffffffffffffffff168273ffffffffffffffffffffffffffffffffffffffff1603612708576040517f08c379a00000000000000000000000000000000000000000000000000000000081526004016126ff9061451c565b60405180910390fd5b612711816115ad565b15612751576040517f08c379a000000000000000000000000000000000000000000000000000000000815260040161274890614588565b60405180910390fd5b61275d60008383611f96565b6001600360008473ffffffffffffffffffffffffffffffffffffffff1673ffffffffffffffffffffffffffffffffffffffff16815260200190815260200160002060008282546127ad9190614084565b92505081905550816002600083815260200190815260200160002060006101000a81548173ffffffffffffffffffffffffffffffffffffffff021916908373ffffffffffffffffffffffffffffffffffffffff160217905550808273ffffffffffffffffffffffffffffffffffffffff16600073ffffffffffffffffffffffffffffffffffffffff167fddf252ad1be2c89b69c2b068fc378daa952ba7f163c4a11628f55a4df523b3ef60405160405180910390a45050565b505050565b6008805490506009600083815260200190815260200160002081905550600881908060018154018082558091505060019003906000526020600020016000909190919091505550565b600060016128c184610eca565b6128cb9190614050565b90506000600760008481526020019081526020016000205490508181146129b0576000600660008673ffffffffffffffffffffffffffffffffffffffff1673ffffffffffffffffffffffffffffffffffffffff168152602001908152602001600020600084815260200190815260200160002054905080600660008773ffffffffffffffffffffffffffffffffffffffff1673ffffffffffffffffffffffffffffffffffffffff168152602001908152602001600020600084815260200190815260200160002081905550816007600083815260200190815260200160002081905550505b6007600084815260200190815260200160002060009055600660008573ffffffffffffffffffffffffffffffffffffffff1673ffffffffffffffffffffffffffffffffffffffff16815260200190815260200160002060008381526020019081526020016000206000905550505050565b60006001600880549050612a359190614050565b9050600060096000848152602001908152602001600020549050600060088381548110612a6557612a64613a88565b5b906000526020600020015490508060088381548110612a8757612a86613a88565b5b906000526020600020018190555081600960008381526020019081526020016000208190555060096000858152602001908152602001600020600090556008805480612ad657612ad56145a8565b5b6001900381819060005260206000200160009055905550505050565b6000612afd83610eca565b905081600660008573ffffffffffffffffffffffffffffffffffffffff1673ffffffffffffffffffffffffffffffffffffffff168152602001908152602001600020600083815260200190815260200160002081905550806007600084815260200190815260200160002081905550505050565b828054612b7d90613711565b90600052602060002090601f016020900481019282612b9f5760008555612be6565b82601f10612bb857805160ff1916838001178555612be6565b82800160010185558215612be6579182015b82811115612be5578251825591602001919060010190612bca565b5b509050612bf39190612c51565b5090565b604051806040016040528060608152602001600081525090565b508054612c1d90613711565b6000825580601f10612c2f5750612c4e565b601f016020900490600052602060002090810190612c4d9190612c51565b5b50565b5b80821115612c6a576000816000905550600101612c52565b5090565b6000604051905090565b600080fd5b600080fd5b60007fffffffff0000000000000000000000000000000000000000000000000000000082169050919050565b612cb781612c82565b8114612cc257600080fd5b50565b600081359050612cd481612cae565b92915050565b600060208284031215612cf057612cef612c78565b5b6000612cfe84828501612cc5565b91505092915050565b60008115159050919050565b612d1c81612d07565b82525050565b6000602082019050612d376000830184612d13565b92915050565b600081519050919050565b600082825260208201905092915050565b60005b83811015612d77578082015181840152602081019050612d5c565b83811115612d86576000848401525b50505050565b6000601f19601f8301169050919050565b6000612da882612d3d565b612db28185612d48565b9350612dc2818560208601612d59565b612dcb81612d8c565b840191505092915050565b60006020820190508181036000830152612df08184612d9d565b905092915050565b6000819050919050565b612e0b81612df8565b8114612e1657600080fd5b50565b600081359050612e2881612e02565b92915050565b600060208284031215612e4457612e43612c78565b5b6000612e5284828501612e19565b91505092915050565b600073ffffffffffffffffffffffffffffffffffffffff82169050919050565b6000612e8682612e5b565b9050919050565b612e9681612e7b565b82525050565b6000602082019050612eb16000830184612e8d565b92915050565b612ec081612e7b565b8114612ecb57600080fd5b50565b600081359050612edd81612eb7565b92915050565b60008060408385031215612efa57612ef9612c78565b5b6000612f0885828601612ece565b9250506020612f1985828601612e19565b9150509250929050565b600080fd5b600080fd5b7f4e487b7100000000000000000000000000000000000000000000000000000000600052604160045260246000fd5b612f6582612d8c565b810181811067ffffffffffffffff82111715612f8457612f83612f2d565b5b80604052505050565b6000612f97612c6e565b9050612fa38282612f5c565b919050565b600067ffffffffffffffff821115612fc357612fc2612f2d565b5b612fcc82612d8c565b9050602081019050919050565b82818337600083830152505050565b6000612ffb612ff684612fa8565b612f8d565b90508281526020810184848401111561301757613016612f28565b5b613022848285612fd9565b509392505050565b600082601f83011261303f5761303e612f23565b5b813561304f848260208601612fe8565b91505092915050565b6000806040838503121561306f5761306e612c78565b5b600061307d85828601612e19565b925050602083013567ffffffffffffffff81111561309e5761309d612c7d565b5b6130aa8582860161302a565b9150509250929050565b6000819050919050565b6130c7816130b4565b81146130d257600080fd5b50565b6000813590506130e4816130be565b92915050565b60008060006060848603121561310357613102612c78565b5b600061311186828701612e19565b935050602084013567ffffffffffffffff81111561313257613131612c7d565b5b61313e8682870161302a565b925050604061314f868287016130d5565b9150509250925092565b61316281612df8565b82525050565b600060208201905061317d6000830184613159565b92915050565b60008060006060848603121561319c5761319b612c78565b5b60006131aa86828701612ece565b93505060206131bb86828701612ece565b92505060406131cc86828701612e19565b9150509250925092565b6000602082840312156131ec576131eb612c78565b5b60006131fa84828501612ece565b91505092915050565b600081519050919050565b600082825260208201905092915050565b6000819050602082019050919050565b61323881612df8565b82525050565b600061324a838361322f565b60208301905092915050565b6000602082019050919050565b600061326e82613203565b613278818561320e565b93506132838361321f565b8060005b838110156132b457815161329b888261323e565b97506132a683613256565b925050600181019050613287565b5085935050505092915050565b600081519050919050565b600082825260208201905092915050565b6000819050602082019050919050565b600082825260208201905092915050565b600061330982612d3d565b61331381856132ed565b9350613323818560208601612d59565b61332c81612d8c565b840191505092915050565b600061334383836132fe565b905092915050565b6000602082019050919050565b6000613363826132c1565b61336d81856132cc565b93508360208202850161337f856132dd565b8060005b858110156133bb578484038952815161339c8582613337565b94506133a78361334b565b925060208a01995050600181019050613383565b50829750879550505050505092915050565b600060608201905081810360008301526133e78186613263565b905081810360208301526133fb8185613358565b9050818103604083015261340f8184613358565b9050949350505050565b613422816130b4565b82525050565b6000604083016000830151848203600086015261344582826132fe565b915050602083015161345a6020860182613419565b508091505092915050565b6000602082019050818103600083015261347f8184613428565b905092915050565b61349081612d07565b811461349b57600080fd5b50565b6000813590506134ad81613487565b92915050565b600080604083850312156134ca576134c9612c78565b5b60006134d885828601612ece565b92505060206134e98582860161349e565b9150509250929050565b600067ffffffffffffffff82111561350e5761350d612f2d565b5b61351782612d8c565b9050602081019050919050565b6000613537613532846134f3565b612f8d565b90508281526020810184848401111561355357613552612f28565b5b61355e848285612fd9565b509392505050565b600082601f83011261357b5761357a612f23565b5b813561358b848260208601613524565b91505092915050565b600080600080608085870312156135ae576135ad612c78565b5b60006135bc87828801612ece565b94505060206135cd87828801612ece565b93505060406135de87828801612e19565b925050606085013567ffffffffffffffff8111156135ff576135fe612c7d565b5b61360b87828801613566565b91505092959194509250565b6000806040838503121561362e5761362d612c78565b5b600061363c85828601612ece565b925050602061364d85828601612ece565b9150509250929050565b6000806000606084860312156136705761366f612c78565b5b600061367e86828701612ece565b935050602084013567ffffffffffffffff81111561369f5761369e612c7d565b5b6136ab8682870161302a565b925050604084013567ffffffffffffffff8111156136cc576136cb612c7d565b5b6136d88682870161302a565b9150509250925092565b7f4e487b7100000000000000000000000000000000000000000000000000000000600052602260045260246000fd5b6000600282049050600182168061372957607f821691505b60208210810361373c5761373b6136e2565b5b50919050565b7f4552433732313a20617070726f76656420717565727920666f72206e6f6e657860008201527f697374656e7420746f6b656e0000000000000000000000000000000000000000602082015250565b600061379e602c83612d48565b91506137a982613742565b604082019050919050565b600060208201905081810360008301526137cd81613791565b9050919050565b7f4552433732313a20617070726f76616c20746f2063757272656e74206f776e6560008201527f7200000000000000000000000000000000000000000000000000000000000000602082015250565b6000613830602183612d48565b915061383b826137d4565b604082019050919050565b6000602082019050818103600083015261385f81613823565b9050919050565b7f4552433732313a20617070726f76652063616c6c6572206973206e6f74206f7760008201527f6e6572206e6f7220617070726f76656420666f7220616c6c0000000000000000602082015250565b60006138c2603883612d48565b91506138cd82613866565b604082019050919050565b600060208201905081810360008301526138f1816138b5565b9050919050565b7f4f776e61626c653a2063616c6c6572206973206e6f7420746865206f776e6572600082015250565b600061392e602083612d48565b9150613939826138f8565b602082019050919050565b6000602082019050818103600083015261395d81613921565b9050919050565b7f4552433732313a207472616e736665722063616c6c6572206973206e6f74206f60008201527f776e6572206e6f7220617070726f766564000000000000000000000000000000602082015250565b60006139c0603183612d48565b91506139cb82613964565b604082019050919050565b600060208201905081810360008301526139ef816139b3565b9050919050565b7f455243373231456e756d657261626c653a206f776e657220696e646578206f7560008201527f74206f6620626f756e6473000000000000000000000000000000000000000000602082015250565b6000613a52602b83612d48565b9150613a5d826139f6565b604082019050919050565b60006020820190508181036000830152613a8181613a45565b9050919050565b7f4e487b7100000000000000000000000000000000000000000000000000000000600052603260045260246000fd5b7f4e487b7100000000000000000000000000000000000000000000000000000000600052601160045260246000fd5b6000613af182612df8565b91507fffffffffffffffffffffffffffffffffffffffffffffffffffffffffffffffff8203613b2357613b22613ab7565b5b600182019050919050565b7f4552433732314275726e61626c653a2063616c6c6572206973206e6f74206f7760008201527f6e6572206e6f7220617070726f76656400000000000000000000000000000000602082015250565b6000613b8a603083612d48565b9150613b9582613b2e565b604082019050919050565b60006020820190508181036000830152613bb981613b7d565b9050919050565b7f455243373231456e756d657261626c653a20676c6f62616c20696e646578206f60008201527f7574206f6620626f756e64730000000000000000000000000000000000000000602082015250565b6000613c1c602c83612d48565b9150613c2782613bc0565b604082019050919050565b60006020820190508181036000830152613c4b81613c0f565b9050919050565b7f4552433732313a206f776e657220717565727920666f72206e6f6e657869737460008201527f656e7420746f6b656e0000000000000000000000000000000000000000000000602082015250565b6000613cae602983612d48565b9150613cb982613c52565b604082019050919050565b60006020820190508181036000830152613cdd81613ca1565b9050919050565b7f4552433732313a2062616c616e636520717565727920666f7220746865207a6560008201527f726f206164647265737300000000000000000000000000000000000000000000602082015250565b6000613d40602a83612d48565b9150613d4b82613ce4565b604082019050919050565b60006020820190508181036000830152613d6f81613d33565b9050919050565b7f4f776e61626c653a206e6577206f776e657220697320746865207a65726f206160008201527f6464726573730000000000000000000000000000000000000000000000000000602082015250565b6000613dd2602683612d48565b9150613ddd82613d76565b604082019050919050565b60006020820190508181036000830152613e0181613dc5565b9050919050565b7f45524337323155524953746f726167653a2055524920736574206f66206e6f6e60008201527f6578697374656e7420746f6b656e000000000000000000000000000000000000602082015250565b6000613e64602e83612d48565b9150613e6f82613e08565b604082019050919050565b60006020820190508181036000830152613e9381613e57565b9050919050565b7f4552433732313a206f70657261746f7220717565727920666f72206e6f6e657860008201527f697374656e7420746f6b656e0000000000000000000000000000000000000000602082015250565b6000613ef6602c83612d48565b9150613f0182613e9a565b604082019050919050565b60006020820190508181036000830152613f2581613ee9565b9050919050565b7f4552433732313a207472616e73666572206f6620746f6b656e2074686174206960008201527f73206e6f74206f776e0000000000000000000000000000000000000000000000602082015250565b6000613f88602983612d48565b9150613f9382613f2c565b604082019050919050565b60006020820190508181036000830152613fb781613f7b565b9050919050565b7f4552433732313a207472616e7366657220746f20746865207a65726f2061646460008201527f7265737300000000000000000000000000000000000000000000000000000000602082015250565b600061401a602483612d48565b915061402582613fbe565b604082019050919050565b600060208201905081810360008301526140498161400d565b9050919050565b600061405b82612df8565b915061406683612df8565b92508282101561407957614078613ab7565b5b828203905092915050565b600061408f82612df8565b915061409a83612df8565b9250827fffffffffffffffffffffffffffffffffffffffffffffffffffffffffffffffff038211156140cf576140ce613ab7565b5b828201905092915050565b7f4552433732313a20617070726f766520746f2063616c6c657200000000000000600082015250565b6000614110601983612d48565b915061411b826140da565b602082019050919050565b6000602082019050818103600083015261413f81614103565b9050919050565b7f4552433732313a207472616e7366657220746f206e6f6e20455243373231526560008201527f63656976657220696d706c656d656e7465720000000000000000000000000000602082015250565b60006141a2603283612d48565b91506141ad82614146565b604082019050919050565b600060208201905081810360008301526141d181614195565b9050919050565b7f45524337323155524953746f726167653a2055524920717565727920666f722060008201527f6e6f6e6578697374656e7420746f6b656e000000000000000000000000000000602082015250565b6000614234603183612d48565b915061423f826141d8565b604082019050919050565b6000602082019050818103600083015261426381614227565b9050919050565b600081905092915050565b600061428082612d3d565b61428a818561426a565b935061429a818560208601612d59565b80840191505092915050565b60006142b28285614275565b91506142be8284614275565b91508190509392505050565b600081519050919050565b600082825260208201905092915050565b60006142f1826142ca565b6142fb81856142d5565b935061430b818560208601612d59565b61431481612d8c565b840191505092915050565b60006080820190506143346000830187612e8d565b6143416020830186612e8d565b61434e6040830185613159565b818103606083015261436081846142e6565b905095945050505050565b60008151905061437a81612cae565b92915050565b60006020828403121561439657614395612c78565b5b60006143a48482850161436b565b91505092915050565b7f4552433732314d657461646174613a2055524920717565727920666f72206e6f60008201527f6e6578697374656e7420746f6b656e0000000000000000000000000000000000602082015250565b6000614409602f83612d48565b9150614414826143ad565b604082019050919050565b60006020820190508181036000830152614438816143fc565b9050919050565b7f4e487b7100000000000000000000000000000000000000000000000000000000600052601260045260246000fd5b600061447982612df8565b915061448483612df8565b9250826144945761449361443f565b5b828204905092915050565b60006144aa82612df8565b91506144b583612df8565b9250826144c5576144c461443f565b5b828206905092915050565b7f4552433732313a206d696e7420746f20746865207a65726f2061646472657373600082015250565b6000614506602083612d48565b9150614511826144d0565b602082019050919050565b60006020820190508181036000830152614535816144f9565b9050919050565b7f4552433732313a20746f6b656e20616c7265616479206d696e74656400000000600082015250565b6000614572601c83612d48565b915061457d8261453c565b602082019050919050565b600060208201905081810360008301526145a181614565565b9050919050565b7f4e487b7100000000000000000000000000000000000000000000000000000000600052603160045260246000fdfea26469706673582212203e6e32ebc6412c174f144bcf444a07727b898b7ed71afe0fa74ae93576d33ccb64736f6c634300080d0033",
  "devdoc": {
    "kind": "dev",
    "methods": {
      "approve(address,uint256)": {
        "details": "See {IERC721-approve}."
      },
      "balanceOf(address)": {
        "details": "See {IERC721-balanceOf}."
      },
      "burn(uint256)": {
        "details": "Burns `tokenId`. See {ERC721-_burn}. Requirements: - The caller must own `tokenId` or be an approved operator."
      },
      "getApproved(uint256)": {
        "details": "See {IERC721-getApproved}."
      },
      "isApprovedForAll(address,address)": {
        "details": "See {IERC721-isApprovedForAll}."
      },
      "name()": {
        "details": "See {IERC721Metadata-name}."
      },
      "owner()": {
        "details": "Returns the address of the current owner."
      },
      "ownerOf(uint256)": {
        "details": "See {IERC721-ownerOf}."
      },
      "renounceOwnership()": {
        "details": "Leaves the contract without owner. It will not be possible to call `onlyOwner` functions anymore. Can only be called by the current owner. NOTE: Renouncing ownership will leave the contract without an owner, thereby removing any functionality that is only available to the owner."
      },
      "safeTransferFrom(address,address,uint256)": {
        "details": "See {IERC721-safeTransferFrom}."
      },
      "safeTransferFrom(address,address,uint256,bytes)": {
        "details": "See {IERC721-safeTransferFrom}."
      },
      "setApprovalForAll(address,bool)": {
        "details": "See {IERC721-setApprovalForAll}."
      },
      "symbol()": {
        "details": "See {IERC721Metadata-symbol}."
      },
      "tokenByIndex(uint256)": {
        "details": "See {IERC721Enumerable-tokenByIndex}."
      },
      "tokenOfOwnerByIndex(address,uint256)": {
        "details": "See {IERC721Enumerable-tokenOfOwnerByIndex}."
      },
      "totalSupply()": {
        "details": "See {IERC721Enumerable-totalSupply}."
      },
      "transferFrom(address,address,uint256)": {
        "details": "See {IERC721-transferFrom}."
      },
      "transferOwnership(address)": {
        "details": "Transfers ownership of the contract to a new account (`newOwner`). Can only be called by the current owner."
      }
    },
    "version": 1
  },
  "userdoc": {
    "kind": "user",
    "methods": {},
    "version": 1
  },
  "storageLayout": {
    "storage": [
      {
        "astId": 170,
        "contract": "contracts/GeoNFT.sol:GeoNFT",
        "label": "_name",
        "offset": 0,
        "slot": "0",
        "type": "t_string_storage"
      },
      {
        "astId": 172,
        "contract": "contracts/GeoNFT.sol:GeoNFT",
        "label": "_symbol",
        "offset": 0,
        "slot": "1",
        "type": "t_string_storage"
      },
      {
        "astId": 176,
        "contract": "contracts/GeoNFT.sol:GeoNFT",
        "label": "_owners",
        "offset": 0,
        "slot": "2",
        "type": "t_mapping(t_uint256,t_address)"
      },
      {
        "astId": 180,
        "contract": "contracts/GeoNFT.sol:GeoNFT",
        "label": "_balances",
        "offset": 0,
        "slot": "3",
        "type": "t_mapping(t_address,t_uint256)"
      },
      {
        "astId": 184,
        "contract": "contracts/GeoNFT.sol:GeoNFT",
        "label": "_tokenApprovals",
        "offset": 0,
        "slot": "4",
        "type": "t_mapping(t_uint256,t_address)"
      },
      {
        "astId": 190,
        "contract": "contracts/GeoNFT.sol:GeoNFT",
        "label": "_operatorApprovals",
        "offset": 0,
        "slot": "5",
        "type": "t_mapping(t_address,t_mapping(t_address,t_bool))"
      },
      {
        "astId": 1154,
        "contract": "contracts/GeoNFT.sol:GeoNFT",
        "label": "_ownedTokens",
        "offset": 0,
        "slot": "6",
        "type": "t_mapping(t_address,t_mapping(t_uint256,t_uint256))"
      },
      {
        "astId": 1158,
        "contract": "contracts/GeoNFT.sol:GeoNFT",
        "label": "_ownedTokensIndex",
        "offset": 0,
        "slot": "7",
        "type": "t_mapping(t_uint256,t_uint256)"
      },
      {
        "astId": 1161,
        "contract": "contracts/GeoNFT.sol:GeoNFT",
        "label": "_allTokens",
        "offset": 0,
        "slot": "8",
        "type": "t_array(t_uint256)dyn_storage"
      },
      {
        "astId": 1165,
        "contract": "contracts/GeoNFT.sol:GeoNFT",
        "label": "_allTokensIndex",
        "offset": 0,
        "slot": "9",
        "type": "t_mapping(t_uint256,t_uint256)"
      },
      {
        "astId": 1490,
        "contract": "contracts/GeoNFT.sol:GeoNFT",
        "label": "_tokenURIs",
        "offset": 0,
        "slot": "10",
        "type": "t_mapping(t_uint256,t_string_storage)"
      },
      {
        "astId": 7,
        "contract": "contracts/GeoNFT.sol:GeoNFT",
        "label": "_owner",
        "offset": 0,
        "slot": "11",
        "type": "t_address"
      },
      {
        "astId": 2320,
        "contract": "contracts/GeoNFT.sol:GeoNFT",
        "label": "_tokenIdCounter",
        "offset": 0,
        "slot": "12",
        "type": "t_struct(Counter)1988_storage"
      },
      {
        "astId": 2329,
        "contract": "contracts/GeoNFT.sol:GeoNFT",
        "label": "geoJsons",
        "offset": 0,
        "slot": "13",
        "type": "t_mapping(t_uint256,t_string_storage)"
      },
      {
        "astId": 2334,
        "contract": "contracts/GeoNFT.sol:GeoNFT",
        "label": "ecologicalIndexMap",
        "offset": 0,
        "slot": "14",
        "type": "t_mapping(t_uint256,t_struct(EcologicalIndex)2325_storage)"
      }
    ],
    "types": {
      "t_address": {
        "encoding": "inplace",
        "label": "address",
        "numberOfBytes": "20"
      },
      "t_array(t_uint256)dyn_storage": {
        "base": "t_uint256",
        "encoding": "dynamic_array",
        "label": "uint256[]",
        "numberOfBytes": "32"
      },
      "t_bool": {
        "encoding": "inplace",
        "label": "bool",
        "numberOfBytes": "1"
      },
      "t_int256": {
        "encoding": "inplace",
        "label": "int256",
        "numberOfBytes": "32"
      },
      "t_mapping(t_address,t_bool)": {
        "encoding": "mapping",
        "key": "t_address",
        "label": "mapping(address => bool)",
        "numberOfBytes": "32",
        "value": "t_bool"
      },
      "t_mapping(t_address,t_mapping(t_address,t_bool))": {
        "encoding": "mapping",
        "key": "t_address",
        "label": "mapping(address => mapping(address => bool))",
        "numberOfBytes": "32",
        "value": "t_mapping(t_address,t_bool)"
      },
      "t_mapping(t_address,t_mapping(t_uint256,t_uint256))": {
        "encoding": "mapping",
        "key": "t_address",
        "label": "mapping(address => mapping(uint256 => uint256))",
        "numberOfBytes": "32",
        "value": "t_mapping(t_uint256,t_uint256)"
      },
      "t_mapping(t_address,t_uint256)": {
        "encoding": "mapping",
        "key": "t_address",
        "label": "mapping(address => uint256)",
        "numberOfBytes": "32",
        "value": "t_uint256"
      },
      "t_mapping(t_uint256,t_address)": {
        "encoding": "mapping",
        "key": "t_uint256",
        "label": "mapping(uint256 => address)",
        "numberOfBytes": "32",
        "value": "t_address"
      },
      "t_mapping(t_uint256,t_string_storage)": {
        "encoding": "mapping",
        "key": "t_uint256",
        "label": "mapping(uint256 => string)",
        "numberOfBytes": "32",
        "value": "t_string_storage"
      },
      "t_mapping(t_uint256,t_struct(EcologicalIndex)2325_storage)": {
        "encoding": "mapping",
        "key": "t_uint256",
        "label": "mapping(uint256 => struct GeoNFT.EcologicalIndex)",
        "numberOfBytes": "32",
        "value": "t_struct(EcologicalIndex)2325_storage"
      },
      "t_mapping(t_uint256,t_uint256)": {
        "encoding": "mapping",
        "key": "t_uint256",
        "label": "mapping(uint256 => uint256)",
        "numberOfBytes": "32",
        "value": "t_uint256"
      },
      "t_string_storage": {
        "encoding": "bytes",
        "label": "string",
        "numberOfBytes": "32"
      },
      "t_struct(Counter)1988_storage": {
        "encoding": "inplace",
        "label": "struct Counters.Counter",
        "members": [
          {
            "astId": 1987,
            "contract": "contracts/GeoNFT.sol:GeoNFT",
            "label": "_value",
            "offset": 0,
            "slot": "0",
            "type": "t_uint256"
          }
        ],
        "numberOfBytes": "32"
      },
      "t_struct(EcologicalIndex)2325_storage": {
        "encoding": "inplace",
        "label": "struct GeoNFT.EcologicalIndex",
        "members": [
          {
            "astId": 2322,
            "contract": "contracts/GeoNFT.sol:GeoNFT",
            "label": "indexType",
            "offset": 0,
            "slot": "0",
            "type": "t_string_storage"
          },
          {
            "astId": 2324,
            "contract": "contracts/GeoNFT.sol:GeoNFT",
            "label": "indexValue",
            "offset": 0,
            "slot": "1",
            "type": "t_int256"
          }
        ],
        "numberOfBytes": "64"
      },
      "t_uint256": {
        "encoding": "inplace",
        "label": "uint256",
        "numberOfBytes": "32"
      }
    }
  }
}