{
  "address": "0xDc64a140Aa3E981100a9becA4E685f962f0cF6C9",
  "abi": [
    {
      "inputs": [
        {
          "internalType": "contract GeoNFT",
          "name": "_geoNFT",
          "type": "address"
        }
      ],
      "stateMutability": "nonpayable",
      "type": "constructor"
    },
    {
      "anonymous": false,
      "inputs": [
        {
          "indexed": false,
          "internalType": "uint256",
          "name": "tokenId",
          "type": "uint256"
        }
      ],
      "name": "GeoNFTRegistered",
      "type": "event"
    },
    {
      "anonymous": false,
      "inputs": [
        {
          "indexed": false,
          "internalType": "uint256",
          "name": "tokenId",
          "type": "uint256"
        },
        {
          "indexed": false,
          "internalType": "string",
          "name": "geojson",
          "type": "string"
        },
        {
          "indexed": false,
          "internalType": "uint256",
          "name": "_area",
          "type": "uint256"
        }
      ],
      "name": "GeoNFTTopologyUpdated",
      "type": "event"
    },
    {
      "anonymous": false,
      "inputs": [
        {
          "indexed": false,
          "internalType": "uint256",
          "name": "tokenId",
          "type": "uint256"
        }
      ],
      "name": "GeoNFTUnregistered",
      "type": "event"
    },
    {
      "anonymous": false,
      "inputs": [
        {
          "indexed": true,
          "internalType": "address",
          "name": "previousOwner",
          "type": "address"
        },
        {
          "indexed": true,
          "internalType": "address",
          "name": "newOwner",
          "type": "address"
        }
      ],
      "name": "OwnershipTransferred",
      "type": "event"
    },
    {
      "inputs": [],
      "name": "GEOHASH_LENGTH",
      "outputs": [
        {
          "internalType": "uint8",
          "name": "",
          "type": "uint8"
        }
      ],
      "stateMutability": "view",
      "type": "function"
    },
    {
      "inputs": [
        {
          "internalType": "string",
          "name": "_geohash",
          "type": "string"
        },
        {
          "internalType": "uint256",
          "name": "_data",
          "type": "uint256"
        }
      ],
      "name": "addToGeotree",
      "outputs": [],
      "stateMutability": "nonpayable",
      "type": "function"
    },
    {
      "inputs": [],
      "name": "geoNFT",
      "outputs": [
        {
          "internalType": "contract GeoNFT",
          "name": "",
          "type": "address"
        }
      ],
      "stateMutability": "view",
      "type": "function"
    },
    {
      "inputs": [],
      "name": "getAllGeoNFTs",
      "outputs": [
        {
          "internalType": "uint256[]",
          "name": "geoNFTsArray",
          "type": "uint256[]"
        }
      ],
      "stateMutability": "view",
      "type": "function"
    },
    {
      "inputs": [
        {
          "internalType": "string",
          "name": "_geohash",
          "type": "string"
        }
      ],
      "name": "getFromGeotree",
      "outputs": [
        {
          "internalType": "uint256[]",
          "name": "",
          "type": "uint256[]"
        }
      ],
      "stateMutability": "view",
      "type": "function"
    },
    {
      "inputs": [],
      "name": "owner",
      "outputs": [
        {
          "internalType": "address",
          "name": "",
          "type": "address"
        }
      ],
      "stateMutability": "view",
      "type": "function"
    },
    {
      "inputs": [
        {
          "internalType": "int64",
          "name": "_latitude",
          "type": "int64"
        },
        {
          "internalType": "int64",
          "name": "_longitude",
          "type": "int64"
        },
        {
          "internalType": "uint8",
          "name": "_precision",
          "type": "uint8"
        }
      ],
      "name": "queryGeoNFTsByLatLng",
      "outputs": [
        {
          "internalType": "uint256[]",
          "name": "",
          "type": "uint256[]"
        }
      ],
      "stateMutability": "view",
      "type": "function"
    },
    {
      "inputs": [
        {
          "internalType": "uint256",
          "name": "_tokenId",
          "type": "uint256"
        },
        {
          "internalType": "int64[2]",
          "name": "_centroid",
          "type": "int64[2]"
        }
      ],
      "name": "registerGeoNFT",
      "outputs": [],
      "stateMutability": "nonpayable",
      "type": "function"
    },
    {
      "inputs": [
        {
          "internalType": "string",
          "name": "_geohash",
          "type": "string"
        },
        {
          "internalType": "uint256",
          "name": "_data",
          "type": "uint256"
        }
      ],
      "name": "removeFromGeotree",
      "outputs": [],
      "stateMutability": "nonpayable",
      "type": "function"
    },
    {
      "inputs": [],
      "name": "renounceOwnership",
      "outputs": [],
      "stateMutability": "nonpayable",
      "type": "function"
    },
    {
      "inputs": [
        {
          "internalType": "address",
          "name": "newOwner",
          "type": "address"
        }
      ],
      "name": "transferOwnership",
      "outputs": [],
      "stateMutability": "nonpayable",
      "type": "function"
    },
    {
      "inputs": [
        {
          "internalType": "uint256",
          "name": "_tokenId",
          "type": "uint256"
        }
      ],
      "name": "unregisterGeoNFT",
      "outputs": [],
      "stateMutability": "nonpayable",
      "type": "function"
    },
    {
      "inputs": [
        {
          "internalType": "uint256",
          "name": "_tokenId",
          "type": "uint256"
        },
        {
          "internalType": "int256[2][][]",
          "name": "_coordinates",
          "type": "int256[2][][]"
        },
        {
          "internalType": "int64[2]",
          "name": "_centroid",
          "type": "int64[2]"
        },
        {
          "internalType": "string",
          "name": "_geojson",
          "type": "string"
        }
      ],
      "name": "updateGeoNFTTopology",
      "outputs": [],
      "stateMutability": "nonpayable",
      "type": "function"
    },
    {
      "inputs": [
        {
          "internalType": "string",
          "name": "_formergeohash",
          "type": "string"
        },
        {
          "internalType": "string",
          "name": "_newgeohash",
          "type": "string"
        },
        {
          "internalType": "uint256",
          "name": "_data",
          "type": "uint256"
        }
      ],
      "name": "updateGeotree",
      "outputs": [],
      "stateMutability": "nonpayable",
      "type": "function"
    }
  ],
  "transactionHash": "0x6a06aa9c8ff7c518f61bfbbf5ad4d17803e223665cf5752c3be6d1345273c5db",
  "args": [
    "0x5FbDB2315678afecb367f032d93F642f64180aa3"
  ],
  "numDeployments": 1,
  "solcInputHash": "384cd3ee43feb2addba43d6a4e627cb8",
  "bytecode": "0x60806040523480156200001157600080fd5b5060405162002e9938038062002e998339818101604052810190620000379190620001f3565b60016000819055506200005f62000053620000a760201b60201c565b620000af60201b60201c565b80600260006101000a81548173ffffffffffffffffffffffffffffffffffffffff021916908373ffffffffffffffffffffffffffffffffffffffff1602179055505062000225565b600033905090565b6000600160009054906101000a900473ffffffffffffffffffffffffffffffffffffffff16905081600160006101000a81548173ffffffffffffffffffffffffffffffffffffffff021916908373ffffffffffffffffffffffffffffffffffffffff1602179055508173ffffffffffffffffffffffffffffffffffffffff168173ffffffffffffffffffffffffffffffffffffffff167f8be0079c531659141344cd1fd0a4f28419497f9722a3daafe3b4186f6b6457e060405160405180910390a35050565b600080fd5b600073ffffffffffffffffffffffffffffffffffffffff82169050919050565b6000620001a7826200017a565b9050919050565b6000620001bb826200019a565b9050919050565b620001cd81620001ae565b8114620001d957600080fd5b50565b600081519050620001ed81620001c2565b92915050565b6000602082840312156200020c576200020b62000175565b5b60006200021c84828501620001dc565b91505092915050565b612c6480620002356000396000f3fe608060405234801561001057600080fd5b50600436106100ea5760003560e01c80637b648ad61161008c578063a3f4d09b11610066578063a3f4d09b146101fd578063e57093b014610219578063f2fde38b14610249578063f689fa4714610265576100ea565b80637b648ad6146101a55780638da5cb5b146101c15780639e923de9146101df576100ea565b806361e91e04116100c857806361e91e04146101475780636c52cf8614610163578063715018a61461017f57806373fcf14614610189576100ea565b8063163e88aa146100ef57806328db5a221461010d5780633d23bb961461012b575b600080fd5b6100f7610295565b604051610104919061195a565b60405180910390f35b6101156102bb565b6040516101229190611a3d565b60405180910390f35b61014560048036038101906101409190611f5f565b610313565b005b610161600480360381019061015c9190611ffe565b610602565b005b61017d6004803603810190610178919061203e565b610799565b005b610187610af9565b005b6101a3600480360381019061019e919061203e565b610b81565b005b6101bf60048036038101906101ba91906120f5565b610e08565b005b6101c9610e66565b6040516101d691906121a6565b60405180910390f35b6101e7610e90565b6040516101f491906121dd565b60405180910390f35b610217600480360381019061021291906121f8565b610e95565b005b610233600480360381019061022e9190612251565b611134565b6040516102409190611a3d565b60405180910390f35b610263600480360381019061025e91906122d0565b6111ce565b005b61027f600480360381019061027a91906122fd565b6112c5565b60405161028c9190611a3d565b60405180910390f35b600260009054906101000a900473ffffffffffffffffffffffffffffffffffffffff1681565b6060600380548060200260200160405190810160405280929190818152602001828054801561030957602002820191906000526020600020905b8154815260200190600101908083116102f5575b5050505050905090565b61031b611344565b73ffffffffffffffffffffffffffffffffffffffff16610339610e66565b73ffffffffffffffffffffffffffffffffffffffff161461038f576040517f08c379a0000000000000000000000000000000000000000000000000000000008152600401610386906123a3565b60405180910390fd5b6000739fE46736679d2D9a65F0992F2272dE9f3c7fa6e063defe2c1c856040518263ffffffff1660e01b81526004016103c891906125df565b602060405180830381865af41580156103e5573d6000803e3d6000fd5b505050506040513d601f19601f820116820180604052508101906104099190612616565b905060008360006002811061042157610420612643565b5b6020020151905060008460016002811061043e5761043d612643565b5b602002015190506000600560008981526020019081526020016000208054610465906126a1565b80601f0160208091040260200160405190810160405280929190818152602001828054610491906126a1565b80156104de5780601f106104b3576101008083540402835291602001916104de565b820191906000526020600020905b8154815290600101906020018083116104c157829003601f168201915b50505050509050600073Cf7Ed3AccA5a467e9e704C703E8D87F634fB0Fc9637161e2e0858560086040518463ffffffff1660e01b8152600401610523939291906126f0565b600060405180830381865af4158015610540573d6000803e3d6000fd5b505050506040513d6000823e3d601f19601f8201168201806040525081019061056991906127ca565b90506000610577838361134c565b9050806105bb57610588828b6113a5565b610592828b610799565b81600560008c815260200190815260200160002090805190602001906105b9929190611778565b505b7fd5368936c6574d161396839c9c3eecf6366b2caba3110635c5092ceb4c97ca548a88886040516105ee93929190612866565b60405180910390a150505050505050505050565b61060a611344565b73ffffffffffffffffffffffffffffffffffffffff16610628610e66565b73ffffffffffffffffffffffffffffffffffffffff161461067e576040517f08c379a0000000000000000000000000000000000000000000000000000000008152600401610675906123a3565b60405180910390fd5b60008160006002811061069457610693612643565b5b602002015190506000826001600281106106b1576106b0612643565b5b602002015190506106c184611417565b600073Cf7Ed3AccA5a467e9e704C703E8D87F634fB0Fc9637161e2e0848460086040518463ffffffff1660e01b81526004016106ff939291906126f0565b600060405180830381865af415801561071c573d6000803e3d6000fd5b505050506040513d6000823e3d601f19601f8201168201806040525081019061074591906127ca565b90506107518186610799565b61075b8582611443565b7ff131f45254d8a96a7bdc8a658fdd1b47b9c38d99ad9f8741a39f3ad8c39d0ee08560405161078a91906128a4565b60405180910390a15050505050565b600860ff168251146107aa57600080fd5b600082905060005b81518160ff161015610af35760006107e560006001846107d291906128ee565b60ff168561146f9092919063ffffffff16565b905060006004826040516107f99190612961565b908152602001604051809103902090506000610878826040518060200160405290816000820180548060200260200160405190810160405280929190818152602001828054801561086957602002820191906000526020600020905b815481526020019060010190808311610855575b5050505050815250508761158d565b905080156108c6576108be6040518060400160405280601881526020017f4461746120616c726561647920696e20746865206e6f646500000000000000008152506115f0565b505050610ae0565b600082600001805490500361099b57600167ffffffffffffffff8111156108f0576108ef611ab5565b5b60405190808252806020026020018201604052801561091e5781602001602082028036833780820191505090505b508260000190805190602001906109369291906117fe565b50858260000160008154811061094f5761094e612643565b5b90600052602060002001819055508160048460405161096e9190612961565b9081526020016040518091039020600082018160000190805461099292919061184b565b50905050610adc565b6000600183600001805490506109b19190612978565b67ffffffffffffffff8111156109ca576109c9611ab5565b5b6040519080825280602002602001820160405280156109f85781602001602082028036833780820191505090505b50905060005b8360000180549050811015610a6057836000018181548110610a2357610a22612643565b5b9060005260206000200154828281518110610a4157610a40612643565b5b6020026020010181815250508080610a58906129ce565b9150506109fe565b508681846000018054905081518110610a7c57610a7b612643565b5b60200260200101818152505080836000019080519060200190610aa09291906117fe565b5082600485604051610ab29190612961565b90815260200160405180910390206000820181600001908054610ad692919061184b565b50905050505b5050505b8080610aeb90612a16565b9150506107b2565b50505050565b610b01611344565b73ffffffffffffffffffffffffffffffffffffffff16610b1f610e66565b73ffffffffffffffffffffffffffffffffffffffff1614610b75576040517f08c379a0000000000000000000000000000000000000000000000000000000008152600401610b6c906123a3565b60405180910390fd5b610b7f6000611689565b565b6000600483604051610b939190612961565b908152602001604051809103902090506000610c128260405180602001604052908160008201805480602002602001604051908101604052809291908181526020018280548015610c0357602002820191906000526020600020905b815481526020019060010190808311610bef575b5050505050815250508461158d565b905080610c5e57610c576040518060400160405280601081526020017f44617461206e6f7420696e206e6f6465000000000000000000000000000000008152506115f0565b5050610e04565b6001826000018054905003610ca357600484604051610c7d9190612961565b908152602001604051809103902060008082016000610c9c919061189d565b5050610e01565b600060018360000180549050610cb99190612a3f565b67ffffffffffffffff811115610cd257610cd1611ab5565b5b604051908082528060200260200182016040528015610d005781602001602082028036833780820191505090505b5090506000805b60018560000180549050610d1b9190612a3f565b811015610dab5785856000018281548110610d3957610d38612643565b5b906000526020600020015414610d9857846000018181548110610d5f57610d5e612643565b5b9060005260206000200154838381518110610d7d57610d7c612643565b5b6020026020010181815250508180610d94906129ce565b9250505b8080610da3906129ce565b915050610d07565b5081846000019080519060200190610dc49291906117fe565b5083600487604051610dd69190612961565b90815260200160405180910390206000820181600001908054610dfa92919061184b565b5090505050505b50505b5050565b610e128482610b81565b610e6083838080601f016020809104026020016040519081016040528093929190818152602001838380828437600081840152601f19601f8201169050808301925050505050505082610799565b50505050565b6000600160009054906101000a900473ffffffffffffffffffffffffffffffffffffffff16905090565b600881565b610e9d611344565b73ffffffffffffffffffffffffffffffffffffffff16610ebb610e66565b73ffffffffffffffffffffffffffffffffffffffff1614610f11576040517f08c379a0000000000000000000000000000000000000000000000000000000008152600401610f08906123a3565b60405180910390fd5b6000600560008381526020019081526020016000208054610f31906126a1565b80601f0160208091040260200160405190810160405280929190818152602001828054610f5d906126a1565b8015610faa5780601f10610f7f57610100808354040283529160200191610faa565b820191906000526020600020905b815481529060010190602001808311610f8d57829003601f168201915b50505050509050610fbb81836113a5565b600160038054905003610ff5576003805480610fda57610fd9612a73565b5b600190038181906000526020600020016000905590556110f9565b600060016003805490506110099190612a3f565b67ffffffffffffffff81111561102257611021611ab5565b5b6040519080825280602002602001820160405280156110505781602001602082028036833780820191505090505b5090506000805b60016003805490506110699190612a3f565b8110156110f557846003828154811061108557611084612643565b5b9060005260206000200154146110e257600381815481106110a9576110a8612643565b5b90600052602060002001548383815181106110c7576110c6612643565b5b60200260200101818152505081806110de906129ce565b9250505b80806110ed906129ce565b915050611057565b5050505b7fd50f75cf5c87bfa9ed2c8eb5d64d50828b5eaa20bb5fe8530fee4a1c5f3663bb8260405161112891906128a4565b60405180910390a15050565b6060600073Cf7Ed3AccA5a467e9e704C703E8D87F634fB0Fc9637161e2e08686866040518463ffffffff1660e01b8152600401611173939291906126f0565b600060405180830381865af4158015611190573d6000803e3d6000fd5b505050506040513d6000823e3d601f19601f820116820180604052508101906111b991906127ca565b90506111c4816112c5565b9150509392505050565b6111d6611344565b73ffffffffffffffffffffffffffffffffffffffff166111f4610e66565b73ffffffffffffffffffffffffffffffffffffffff161461124a576040517f08c379a0000000000000000000000000000000000000000000000000000000008152600401611241906123a3565b60405180910390fd5b600073ffffffffffffffffffffffffffffffffffffffff168173ffffffffffffffffffffffffffffffffffffffff16036112b9576040517f08c379a00000000000000000000000000000000000000000000000000000000081526004016112b090612b14565b60405180910390fd5b6112c281611689565b50565b606060006004836040516112d99190612961565b908152602001604051809103902090508060000180548060200260200160405190810160405280929190818152602001828054801561133757602002820191906000526020600020905b815481526020019060010190808311611323575b5050505050915050919050565b600033905090565b60008160405160200161135f9190612961565b60405160208183030381529060405280519060200120836040516020016113869190612961565b6040516020818303038152906040528051906020012014905092915050565b6000829050600860ff168151146113bb57600080fd5b60005b81518160ff1610156114115760006113f160006001846113de91906128ee565b60ff168561146f9092919063ffffffff16565b90506113fd8185610b81565b50808061140990612a16565b9150506113be565b50505050565b600381908060018154018082558091505060019003906000526020600020016000909190919091505550565b8060056000848152602001908152602001600020908051906020019061146a929190611778565b505050565b606081601f8361147f9190612978565b10156114c0576040517f08c379a00000000000000000000000000000000000000000000000000000000081526004016114b790612b80565b60405180910390fd5b81836114cc9190612978565b8451101561150f576040517f08c379a000000000000000000000000000000000000000000000000000000000815260040161150690612bec565b60405180910390fd5b60608215600081146115305760405191506000825260208201604052611581565b6040519150601f8416801560200281840101858101878315602002848b0101015b8183101561156e5780518352602083019250602081019050611551565b50868552601f19601f8301166040525050505b50809150509392505050565b600080600090505b8360000151518110156115e45782846000015182815181106115ba576115b9612643565b5b6020026020010151036115d15760019150506115ea565b80806115dc906129ce565b915050611595565b50600090505b92915050565b611686816040516024016116049190612c0c565b6040516020818303038152906040527f41304fac000000000000000000000000000000000000000000000000000000007bffffffffffffffffffffffffffffffffffffffffffffffffffffffff19166020820180517bffffffffffffffffffffffffffffffffffffffffffffffffffffffff838183161783525050505061174f565b50565b6000600160009054906101000a900473ffffffffffffffffffffffffffffffffffffffff16905081600160006101000a81548173ffffffffffffffffffffffffffffffffffffffff021916908373ffffffffffffffffffffffffffffffffffffffff1602179055508173ffffffffffffffffffffffffffffffffffffffff168173ffffffffffffffffffffffffffffffffffffffff167f8be0079c531659141344cd1fd0a4f28419497f9722a3daafe3b4186f6b6457e060405160405180910390a35050565b60008151905060006a636f6e736f6c652e6c6f679050602083016000808483855afa5050505050565b828054611784906126a1565b90600052602060002090601f0160209004810192826117a657600085556117ed565b82601f106117bf57805160ff19168380011785556117ed565b828001600101855582156117ed579182015b828111156117ec5782518255916020019190600101906117d1565b5b5090506117fa91906118be565b5090565b82805482825590600052602060002090810192821561183a579160200282015b8281111561183957825182559160200191906001019061181e565b5b50905061184791906118be565b5090565b82805482825590600052602060002090810192821561188c5760005260206000209182015b8281111561188b578254825591600101919060010190611870565b5b50905061189991906118be565b5090565b50805460008255906000526020600020908101906118bb91906118be565b50565b5b808211156118d75760008160009055506001016118bf565b5090565b600073ffffffffffffffffffffffffffffffffffffffff82169050919050565b6000819050919050565b600061192061191b611916846118db565b6118fb565b6118db565b9050919050565b600061193282611905565b9050919050565b600061194482611927565b9050919050565b61195481611939565b82525050565b600060208201905061196f600083018461194b565b92915050565b600081519050919050565b600082825260208201905092915050565b6000819050602082019050919050565b6000819050919050565b6119b4816119a1565b82525050565b60006119c683836119ab565b60208301905092915050565b6000602082019050919050565b60006119ea82611975565b6119f48185611980565b93506119ff83611991565b8060005b83811015611a30578151611a1788826119ba565b9750611a22836119d2565b925050600181019050611a03565b5085935050505092915050565b60006020820190508181036000830152611a5781846119df565b905092915050565b6000604051905090565b600080fd5b600080fd5b611a7c816119a1565b8114611a8757600080fd5b50565b600081359050611a9981611a73565b92915050565b600080fd5b6000601f19601f8301169050919050565b7f4e487b7100000000000000000000000000000000000000000000000000000000600052604160045260246000fd5b611aed82611aa4565b810181811067ffffffffffffffff82111715611b0c57611b0b611ab5565b5b80604052505050565b6000611b1f611a5f565b9050611b2b8282611ae4565b919050565b600067ffffffffffffffff821115611b4b57611b4a611ab5565b5b602082029050602081019050919050565b600080fd5b600067ffffffffffffffff821115611b7c57611b7b611ab5565b5b602082029050602081019050919050565b600067ffffffffffffffff821115611ba857611ba7611ab5565b5b602082029050919050565b6000819050919050565b611bc681611bb3565b8114611bd157600080fd5b50565b600081359050611be381611bbd565b92915050565b6000611bfc611bf784611b8d565b611b15565b90508060208402830185811115611c1657611c15611b5c565b5b835b81811015611c3f5780611c2b8882611bd4565b845260208401935050602081019050611c18565b5050509392505050565b600082601f830112611c5e57611c5d611a9f565b5b6002611c6b848285611be9565b91505092915050565b6000611c87611c8284611b61565b611b15565b90508083825260208201905060408402830185811115611caa57611ca9611b5c565b5b835b81811015611cd35780611cbf8882611c49565b845260208401935050604081019050611cac565b5050509392505050565b600082601f830112611cf257611cf1611a9f565b5b8135611d02848260208601611c74565b91505092915050565b6000611d1e611d1984611b30565b611b15565b90508083825260208201905060208402830185811115611d4157611d40611b5c565b5b835b81811015611d8857803567ffffffffffffffff811115611d6657611d65611a9f565b5b808601611d738982611cdd565b85526020850194505050602081019050611d43565b5050509392505050565b600082601f830112611da757611da6611a9f565b5b8135611db7848260208601611d0b565b91505092915050565b600067ffffffffffffffff821115611ddb57611dda611ab5565b5b602082029050919050565b60008160070b9050919050565b611dfc81611de6565b8114611e0757600080fd5b50565b600081359050611e1981611df3565b92915050565b6000611e32611e2d84611dc0565b611b15565b90508060208402830185811115611e4c57611e4b611b5c565b5b835b81811015611e755780611e618882611e0a565b845260208401935050602081019050611e4e565b5050509392505050565b600082601f830112611e9457611e93611a9f565b5b6002611ea1848285611e1f565b91505092915050565b600080fd5b600067ffffffffffffffff821115611eca57611ec9611ab5565b5b611ed382611aa4565b9050602081019050919050565b82818337600083830152505050565b6000611f02611efd84611eaf565b611b15565b905082815260208101848484011115611f1e57611f1d611eaa565b5b611f29848285611ee0565b509392505050565b600082601f830112611f4657611f45611a9f565b5b8135611f56848260208601611eef565b91505092915050565b60008060008060a08587031215611f7957611f78611a69565b5b6000611f8787828801611a8a565b945050602085013567ffffffffffffffff811115611fa857611fa7611a6e565b5b611fb487828801611d92565b9350506040611fc587828801611e7f565b925050608085013567ffffffffffffffff811115611fe657611fe5611a6e565b5b611ff287828801611f31565b91505092959194509250565b6000806060838503121561201557612014611a69565b5b600061202385828601611a8a565b925050602061203485828601611e7f565b9150509250929050565b6000806040838503121561205557612054611a69565b5b600083013567ffffffffffffffff81111561207357612072611a6e565b5b61207f85828601611f31565b925050602061209085828601611a8a565b9150509250929050565b600080fd5b60008083601f8401126120b5576120b4611a9f565b5b8235905067ffffffffffffffff8111156120d2576120d161209a565b5b6020830191508360018202830111156120ee576120ed611b5c565b5b9250929050565b6000806000806060858703121561210f5761210e611a69565b5b600085013567ffffffffffffffff81111561212d5761212c611a6e565b5b61213987828801611f31565b945050602085013567ffffffffffffffff81111561215a57612159611a6e565b5b6121668782880161209f565b9350935050604061217987828801611a8a565b91505092959194509250565b6000612190826118db565b9050919050565b6121a081612185565b82525050565b60006020820190506121bb6000830184612197565b92915050565b600060ff82169050919050565b6121d7816121c1565b82525050565b60006020820190506121f260008301846121ce565b92915050565b60006020828403121561220e5761220d611a69565b5b600061221c84828501611a8a565b91505092915050565b61222e816121c1565b811461223957600080fd5b50565b60008135905061224b81612225565b92915050565b60008060006060848603121561226a57612269611a69565b5b600061227886828701611e0a565b935050602061228986828701611e0a565b925050604061229a8682870161223c565b9150509250925092565b6122ad81612185565b81146122b857600080fd5b50565b6000813590506122ca816122a4565b92915050565b6000602082840312156122e6576122e5611a69565b5b60006122f4848285016122bb565b91505092915050565b60006020828403121561231357612312611a69565b5b600082013567ffffffffffffffff81111561233157612330611a6e565b5b61233d84828501611f31565b91505092915050565b600082825260208201905092915050565b7f4f776e61626c653a2063616c6c6572206973206e6f7420746865206f776e6572600082015250565b600061238d602083612346565b915061239882612357565b602082019050919050565b600060208201905081810360008301526123bc81612380565b9050919050565b600081519050919050565b600082825260208201905092915050565b6000819050602082019050919050565b600081519050919050565b600082825260208201905092915050565b6000819050602082019050919050565b600060029050919050565b600081905092915050565b6000819050919050565b61244481611bb3565b82525050565b6000612456838361243b565b60208301905092915050565b6000602082019050919050565b6124788161241b565b6124828184612426565b925061248d82612431565b8060005b838110156124be5781516124a5878261244a565b96506124b083612462565b925050600181019050612491565b505050505050565b60006124d2838361246f565b60408301905092915050565b6000602082019050919050565b60006124f6826123ef565b61250081856123fa565b935061250b8361240b565b8060005b8381101561253c57815161252388826124c6565b975061252e836124de565b92505060018101905061250f565b5085935050505092915050565b600061255583836124eb565b905092915050565b6000602082019050919050565b6000612575826123c3565b61257f81856123ce565b935083602082028501612591856123df565b8060005b858110156125cd57848403895281516125ae8582612549565b94506125b98361255d565b925060208a01995050600181019050612595565b50829750879550505050505092915050565b600060208201905081810360008301526125f9818461256a565b905092915050565b60008151905061261081611a73565b92915050565b60006020828403121561262c5761262b611a69565b5b600061263a84828501612601565b91505092915050565b7f4e487b7100000000000000000000000000000000000000000000000000000000600052603260045260246000fd5b7f4e487b7100000000000000000000000000000000000000000000000000000000600052602260045260246000fd5b600060028204905060018216806126b957607f821691505b6020821081036126cc576126cb612672565b5b50919050565b6126db81611de6565b82525050565b6126ea816121c1565b82525050565b600060608201905061270560008301866126d2565b61271260208301856126d2565b61271f60408301846126e1565b949350505050565b60005b8381101561274557808201518184015260208101905061272a565b83811115612754576000848401525b50505050565b600061276d61276884611eaf565b611b15565b90508281526020810184848401111561278957612788611eaa565b5b612794848285612727565b509392505050565b600082601f8301126127b1576127b0611a9f565b5b81516127c184826020860161275a565b91505092915050565b6000602082840312156127e0576127df611a69565b5b600082015167ffffffffffffffff8111156127fe576127fd611a6e565b5b61280a8482850161279c565b91505092915050565b61281c816119a1565b82525050565b600081519050919050565b600061283882612822565b6128428185612346565b9350612852818560208601612727565b61285b81611aa4565b840191505092915050565b600060608201905061287b6000830186612813565b818103602083015261288d818561282d565b905061289c6040830184612813565b949350505050565b60006020820190506128b96000830184612813565b92915050565b7f4e487b7100000000000000000000000000000000000000000000000000000000600052601160045260246000fd5b60006128f9826121c1565b9150612904836121c1565b92508260ff0382111561291a576129196128bf565b5b828201905092915050565b600081905092915050565b600061293b82612822565b6129458185612925565b9350612955818560208601612727565b80840191505092915050565b600061296d8284612930565b915081905092915050565b6000612983826119a1565b915061298e836119a1565b9250827fffffffffffffffffffffffffffffffffffffffffffffffffffffffffffffffff038211156129c3576129c26128bf565b5b828201905092915050565b60006129d9826119a1565b91507fffffffffffffffffffffffffffffffffffffffffffffffffffffffffffffffff8203612a0b57612a0a6128bf565b5b600182019050919050565b6000612a21826121c1565b915060ff8203612a3457612a336128bf565b5b600182019050919050565b6000612a4a826119a1565b9150612a55836119a1565b925082821015612a6857612a676128bf565b5b828203905092915050565b7f4e487b7100000000000000000000000000000000000000000000000000000000600052603160045260246000fd5b7f4f776e61626c653a206e6577206f776e657220697320746865207a65726f206160008201527f6464726573730000000000000000000000000000000000000000000000000000602082015250565b6000612afe602683612346565b9150612b0982612aa2565b604082019050919050565b60006020820190508181036000830152612b2d81612af1565b9050919050565b7f736c6963655f6f766572666c6f77000000000000000000000000000000000000600082015250565b6000612b6a600e83612346565b9150612b7582612b34565b602082019050919050565b60006020820190508181036000830152612b9981612b5d565b9050919050565b7f736c6963655f6f75744f66426f756e6473000000000000000000000000000000600082015250565b6000612bd6601183612346565b9150612be182612ba0565b602082019050919050565b60006020820190508181036000830152612c0581612bc9565b9050919050565b60006020820190508181036000830152612c26818461282d565b90509291505056fea26469706673582212203dc764979cb99897b7379d474a3a522f1d8180d98a4f428ff95f1b770f0f0c7164736f6c634300080d0033",
  "deployedBytecode": "0x608060405234801561001057600080fd5b50600436106100ea5760003560e01c80637b648ad61161008c578063a3f4d09b11610066578063a3f4d09b146101fd578063e57093b014610219578063f2fde38b14610249578063f689fa4714610265576100ea565b80637b648ad6146101a55780638da5cb5b146101c15780639e923de9146101df576100ea565b806361e91e04116100c857806361e91e04146101475780636c52cf8614610163578063715018a61461017f57806373fcf14614610189576100ea565b8063163e88aa146100ef57806328db5a221461010d5780633d23bb961461012b575b600080fd5b6100f7610295565b604051610104919061195a565b60405180910390f35b6101156102bb565b6040516101229190611a3d565b60405180910390f35b61014560048036038101906101409190611f5f565b610313565b005b610161600480360381019061015c9190611ffe565b610602565b005b61017d6004803603810190610178919061203e565b610799565b005b610187610af9565b005b6101a3600480360381019061019e919061203e565b610b81565b005b6101bf60048036038101906101ba91906120f5565b610e08565b005b6101c9610e66565b6040516101d691906121a6565b60405180910390f35b6101e7610e90565b6040516101f491906121dd565b60405180910390f35b610217600480360381019061021291906121f8565b610e95565b005b610233600480360381019061022e9190612251565b611134565b6040516102409190611a3d565b60405180910390f35b610263600480360381019061025e91906122d0565b6111ce565b005b61027f600480360381019061027a91906122fd565b6112c5565b60405161028c9190611a3d565b60405180910390f35b600260009054906101000a900473ffffffffffffffffffffffffffffffffffffffff1681565b6060600380548060200260200160405190810160405280929190818152602001828054801561030957602002820191906000526020600020905b8154815260200190600101908083116102f5575b5050505050905090565b61031b611344565b73ffffffffffffffffffffffffffffffffffffffff16610339610e66565b73ffffffffffffffffffffffffffffffffffffffff161461038f576040517f08c379a0000000000000000000000000000000000000000000000000000000008152600401610386906123a3565b60405180910390fd5b600073__$9b062ab5c950cf193f582284c7b82e9862$__63defe2c1c856040518263ffffffff1660e01b81526004016103c891906125df565b602060405180830381865af41580156103e5573d6000803e3d6000fd5b505050506040513d601f19601f820116820180604052508101906104099190612616565b905060008360006002811061042157610420612643565b5b6020020151905060008460016002811061043e5761043d612643565b5b602002015190506000600560008981526020019081526020016000208054610465906126a1565b80601f0160208091040260200160405190810160405280929190818152602001828054610491906126a1565b80156104de5780601f106104b3576101008083540402835291602001916104de565b820191906000526020600020905b8154815290600101906020018083116104c157829003601f168201915b50505050509050600073__$3a9a7d4234673457923161741a4caf1fa9$__637161e2e0858560086040518463ffffffff1660e01b8152600401610523939291906126f0565b600060405180830381865af4158015610540573d6000803e3d6000fd5b505050506040513d6000823e3d601f19601f8201168201806040525081019061056991906127ca565b90506000610577838361134c565b9050806105bb57610588828b6113a5565b610592828b610799565b81600560008c815260200190815260200160002090805190602001906105b9929190611778565b505b7fd5368936c6574d161396839c9c3eecf6366b2caba3110635c5092ceb4c97ca548a88886040516105ee93929190612866565b60405180910390a150505050505050505050565b61060a611344565b73ffffffffffffffffffffffffffffffffffffffff16610628610e66565b73ffffffffffffffffffffffffffffffffffffffff161461067e576040517f08c379a0000000000000000000000000000000000000000000000000000000008152600401610675906123a3565b60405180910390fd5b60008160006002811061069457610693612643565b5b602002015190506000826001600281106106b1576106b0612643565b5b602002015190506106c184611417565b600073__$3a9a7d4234673457923161741a4caf1fa9$__637161e2e0848460086040518463ffffffff1660e01b81526004016106ff939291906126f0565b600060405180830381865af415801561071c573d6000803e3d6000fd5b505050506040513d6000823e3d601f19601f8201168201806040525081019061074591906127ca565b90506107518186610799565b61075b8582611443565b7ff131f45254d8a96a7bdc8a658fdd1b47b9c38d99ad9f8741a39f3ad8c39d0ee08560405161078a91906128a4565b60405180910390a15050505050565b600860ff168251146107aa57600080fd5b600082905060005b81518160ff161015610af35760006107e560006001846107d291906128ee565b60ff168561146f9092919063ffffffff16565b905060006004826040516107f99190612961565b908152602001604051809103902090506000610878826040518060200160405290816000820180548060200260200160405190810160405280929190818152602001828054801561086957602002820191906000526020600020905b815481526020019060010190808311610855575b5050505050815250508761158d565b905080156108c6576108be6040518060400160405280601881526020017f4461746120616c726561647920696e20746865206e6f646500000000000000008152506115f0565b505050610ae0565b600082600001805490500361099b57600167ffffffffffffffff8111156108f0576108ef611ab5565b5b60405190808252806020026020018201604052801561091e5781602001602082028036833780820191505090505b508260000190805190602001906109369291906117fe565b50858260000160008154811061094f5761094e612643565b5b90600052602060002001819055508160048460405161096e9190612961565b9081526020016040518091039020600082018160000190805461099292919061184b565b50905050610adc565b6000600183600001805490506109b19190612978565b67ffffffffffffffff8111156109ca576109c9611ab5565b5b6040519080825280602002602001820160405280156109f85781602001602082028036833780820191505090505b50905060005b8360000180549050811015610a6057836000018181548110610a2357610a22612643565b5b9060005260206000200154828281518110610a4157610a40612643565b5b6020026020010181815250508080610a58906129ce565b9150506109fe565b508681846000018054905081518110610a7c57610a7b612643565b5b60200260200101818152505080836000019080519060200190610aa09291906117fe565b5082600485604051610ab29190612961565b90815260200160405180910390206000820181600001908054610ad692919061184b565b50905050505b5050505b8080610aeb90612a16565b9150506107b2565b50505050565b610b01611344565b73ffffffffffffffffffffffffffffffffffffffff16610b1f610e66565b73ffffffffffffffffffffffffffffffffffffffff1614610b75576040517f08c379a0000000000000000000000000000000000000000000000000000000008152600401610b6c906123a3565b60405180910390fd5b610b7f6000611689565b565b6000600483604051610b939190612961565b908152602001604051809103902090506000610c128260405180602001604052908160008201805480602002602001604051908101604052809291908181526020018280548015610c0357602002820191906000526020600020905b815481526020019060010190808311610bef575b5050505050815250508461158d565b905080610c5e57610c576040518060400160405280601081526020017f44617461206e6f7420696e206e6f6465000000000000000000000000000000008152506115f0565b5050610e04565b6001826000018054905003610ca357600484604051610c7d9190612961565b908152602001604051809103902060008082016000610c9c919061189d565b5050610e01565b600060018360000180549050610cb99190612a3f565b67ffffffffffffffff811115610cd257610cd1611ab5565b5b604051908082528060200260200182016040528015610d005781602001602082028036833780820191505090505b5090506000805b60018560000180549050610d1b9190612a3f565b811015610dab5785856000018281548110610d3957610d38612643565b5b906000526020600020015414610d9857846000018181548110610d5f57610d5e612643565b5b9060005260206000200154838381518110610d7d57610d7c612643565b5b6020026020010181815250508180610d94906129ce565b9250505b8080610da3906129ce565b915050610d07565b5081846000019080519060200190610dc49291906117fe565b5083600487604051610dd69190612961565b90815260200160405180910390206000820181600001908054610dfa92919061184b565b5090505050505b50505b5050565b610e128482610b81565b610e6083838080601f016020809104026020016040519081016040528093929190818152602001838380828437600081840152601f19601f8201169050808301925050505050505082610799565b50505050565b6000600160009054906101000a900473ffffffffffffffffffffffffffffffffffffffff16905090565b600881565b610e9d611344565b73ffffffffffffffffffffffffffffffffffffffff16610ebb610e66565b73ffffffffffffffffffffffffffffffffffffffff1614610f11576040517f08c379a0000000000000000000000000000000000000000000000000000000008152600401610f08906123a3565b60405180910390fd5b6000600560008381526020019081526020016000208054610f31906126a1565b80601f0160208091040260200160405190810160405280929190818152602001828054610f5d906126a1565b8015610faa5780601f10610f7f57610100808354040283529160200191610faa565b820191906000526020600020905b815481529060010190602001808311610f8d57829003601f168201915b50505050509050610fbb81836113a5565b600160038054905003610ff5576003805480610fda57610fd9612a73565b5b600190038181906000526020600020016000905590556110f9565b600060016003805490506110099190612a3f565b67ffffffffffffffff81111561102257611021611ab5565b5b6040519080825280602002602001820160405280156110505781602001602082028036833780820191505090505b5090506000805b60016003805490506110699190612a3f565b8110156110f557846003828154811061108557611084612643565b5b9060005260206000200154146110e257600381815481106110a9576110a8612643565b5b90600052602060002001548383815181106110c7576110c6612643565b5b60200260200101818152505081806110de906129ce565b9250505b80806110ed906129ce565b915050611057565b5050505b7fd50f75cf5c87bfa9ed2c8eb5d64d50828b5eaa20bb5fe8530fee4a1c5f3663bb8260405161112891906128a4565b60405180910390a15050565b6060600073__$3a9a7d4234673457923161741a4caf1fa9$__637161e2e08686866040518463ffffffff1660e01b8152600401611173939291906126f0565b600060405180830381865af4158015611190573d6000803e3d6000fd5b505050506040513d6000823e3d601f19601f820116820180604052508101906111b991906127ca565b90506111c4816112c5565b9150509392505050565b6111d6611344565b73ffffffffffffffffffffffffffffffffffffffff166111f4610e66565b73ffffffffffffffffffffffffffffffffffffffff161461124a576040517f08c379a0000000000000000000000000000000000000000000000000000000008152600401611241906123a3565b60405180910390fd5b600073ffffffffffffffffffffffffffffffffffffffff168173ffffffffffffffffffffffffffffffffffffffff16036112b9576040517f08c379a00000000000000000000000000000000000000000000000000000000081526004016112b090612b14565b60405180910390fd5b6112c281611689565b50565b606060006004836040516112d99190612961565b908152602001604051809103902090508060000180548060200260200160405190810160405280929190818152602001828054801561133757602002820191906000526020600020905b815481526020019060010190808311611323575b5050505050915050919050565b600033905090565b60008160405160200161135f9190612961565b60405160208183030381529060405280519060200120836040516020016113869190612961565b6040516020818303038152906040528051906020012014905092915050565b6000829050600860ff168151146113bb57600080fd5b60005b81518160ff1610156114115760006113f160006001846113de91906128ee565b60ff168561146f9092919063ffffffff16565b90506113fd8185610b81565b50808061140990612a16565b9150506113be565b50505050565b600381908060018154018082558091505060019003906000526020600020016000909190919091505550565b8060056000848152602001908152602001600020908051906020019061146a929190611778565b505050565b606081601f8361147f9190612978565b10156114c0576040517f08c379a00000000000000000000000000000000000000000000000000000000081526004016114b790612b80565b60405180910390fd5b81836114cc9190612978565b8451101561150f576040517f08c379a000000000000000000000000000000000000000000000000000000000815260040161150690612bec565b60405180910390fd5b60608215600081146115305760405191506000825260208201604052611581565b6040519150601f8416801560200281840101858101878315602002848b0101015b8183101561156e5780518352602083019250602081019050611551565b50868552601f19601f8301166040525050505b50809150509392505050565b600080600090505b8360000151518110156115e45782846000015182815181106115ba576115b9612643565b5b6020026020010151036115d15760019150506115ea565b80806115dc906129ce565b915050611595565b50600090505b92915050565b611686816040516024016116049190612c0c565b6040516020818303038152906040527f41304fac000000000000000000000000000000000000000000000000000000007bffffffffffffffffffffffffffffffffffffffffffffffffffffffff19166020820180517bffffffffffffffffffffffffffffffffffffffffffffffffffffffff838183161783525050505061174f565b50565b6000600160009054906101000a900473ffffffffffffffffffffffffffffffffffffffff16905081600160006101000a81548173ffffffffffffffffffffffffffffffffffffffff021916908373ffffffffffffffffffffffffffffffffffffffff1602179055508173ffffffffffffffffffffffffffffffffffffffff168173ffffffffffffffffffffffffffffffffffffffff167f8be0079c531659141344cd1fd0a4f28419497f9722a3daafe3b4186f6b6457e060405160405180910390a35050565b60008151905060006a636f6e736f6c652e6c6f679050602083016000808483855afa5050505050565b828054611784906126a1565b90600052602060002090601f0160209004810192826117a657600085556117ed565b82601f106117bf57805160ff19168380011785556117ed565b828001600101855582156117ed579182015b828111156117ec5782518255916020019190600101906117d1565b5b5090506117fa91906118be565b5090565b82805482825590600052602060002090810192821561183a579160200282015b8281111561183957825182559160200191906001019061181e565b5b50905061184791906118be565b5090565b82805482825590600052602060002090810192821561188c5760005260206000209182015b8281111561188b578254825591600101919060010190611870565b5b50905061189991906118be565b5090565b50805460008255906000526020600020908101906118bb91906118be565b50565b5b808211156118d75760008160009055506001016118bf565b5090565b600073ffffffffffffffffffffffffffffffffffffffff82169050919050565b6000819050919050565b600061192061191b611916846118db565b6118fb565b6118db565b9050919050565b600061193282611905565b9050919050565b600061194482611927565b9050919050565b61195481611939565b82525050565b600060208201905061196f600083018461194b565b92915050565b600081519050919050565b600082825260208201905092915050565b6000819050602082019050919050565b6000819050919050565b6119b4816119a1565b82525050565b60006119c683836119ab565b60208301905092915050565b6000602082019050919050565b60006119ea82611975565b6119f48185611980565b93506119ff83611991565b8060005b83811015611a30578151611a1788826119ba565b9750611a22836119d2565b925050600181019050611a03565b5085935050505092915050565b60006020820190508181036000830152611a5781846119df565b905092915050565b6000604051905090565b600080fd5b600080fd5b611a7c816119a1565b8114611a8757600080fd5b50565b600081359050611a9981611a73565b92915050565b600080fd5b6000601f19601f8301169050919050565b7f4e487b7100000000000000000000000000000000000000000000000000000000600052604160045260246000fd5b611aed82611aa4565b810181811067ffffffffffffffff82111715611b0c57611b0b611ab5565b5b80604052505050565b6000611b1f611a5f565b9050611b2b8282611ae4565b919050565b600067ffffffffffffffff821115611b4b57611b4a611ab5565b5b602082029050602081019050919050565b600080fd5b600067ffffffffffffffff821115611b7c57611b7b611ab5565b5b602082029050602081019050919050565b600067ffffffffffffffff821115611ba857611ba7611ab5565b5b602082029050919050565b6000819050919050565b611bc681611bb3565b8114611bd157600080fd5b50565b600081359050611be381611bbd565b92915050565b6000611bfc611bf784611b8d565b611b15565b90508060208402830185811115611c1657611c15611b5c565b5b835b81811015611c3f5780611c2b8882611bd4565b845260208401935050602081019050611c18565b5050509392505050565b600082601f830112611c5e57611c5d611a9f565b5b6002611c6b848285611be9565b91505092915050565b6000611c87611c8284611b61565b611b15565b90508083825260208201905060408402830185811115611caa57611ca9611b5c565b5b835b81811015611cd35780611cbf8882611c49565b845260208401935050604081019050611cac565b5050509392505050565b600082601f830112611cf257611cf1611a9f565b5b8135611d02848260208601611c74565b91505092915050565b6000611d1e611d1984611b30565b611b15565b90508083825260208201905060208402830185811115611d4157611d40611b5c565b5b835b81811015611d8857803567ffffffffffffffff811115611d6657611d65611a9f565b5b808601611d738982611cdd565b85526020850194505050602081019050611d43565b5050509392505050565b600082601f830112611da757611da6611a9f565b5b8135611db7848260208601611d0b565b91505092915050565b600067ffffffffffffffff821115611ddb57611dda611ab5565b5b602082029050919050565b60008160070b9050919050565b611dfc81611de6565b8114611e0757600080fd5b50565b600081359050611e1981611df3565b92915050565b6000611e32611e2d84611dc0565b611b15565b90508060208402830185811115611e4c57611e4b611b5c565b5b835b81811015611e755780611e618882611e0a565b845260208401935050602081019050611e4e565b5050509392505050565b600082601f830112611e9457611e93611a9f565b5b6002611ea1848285611e1f565b91505092915050565b600080fd5b600067ffffffffffffffff821115611eca57611ec9611ab5565b5b611ed382611aa4565b9050602081019050919050565b82818337600083830152505050565b6000611f02611efd84611eaf565b611b15565b905082815260208101848484011115611f1e57611f1d611eaa565b5b611f29848285611ee0565b509392505050565b600082601f830112611f4657611f45611a9f565b5b8135611f56848260208601611eef565b91505092915050565b60008060008060a08587031215611f7957611f78611a69565b5b6000611f8787828801611a8a565b945050602085013567ffffffffffffffff811115611fa857611fa7611a6e565b5b611fb487828801611d92565b9350506040611fc587828801611e7f565b925050608085013567ffffffffffffffff811115611fe657611fe5611a6e565b5b611ff287828801611f31565b91505092959194509250565b6000806060838503121561201557612014611a69565b5b600061202385828601611a8a565b925050602061203485828601611e7f565b9150509250929050565b6000806040838503121561205557612054611a69565b5b600083013567ffffffffffffffff81111561207357612072611a6e565b5b61207f85828601611f31565b925050602061209085828601611a8a565b9150509250929050565b600080fd5b60008083601f8401126120b5576120b4611a9f565b5b8235905067ffffffffffffffff8111156120d2576120d161209a565b5b6020830191508360018202830111156120ee576120ed611b5c565b5b9250929050565b6000806000806060858703121561210f5761210e611a69565b5b600085013567ffffffffffffffff81111561212d5761212c611a6e565b5b61213987828801611f31565b945050602085013567ffffffffffffffff81111561215a57612159611a6e565b5b6121668782880161209f565b9350935050604061217987828801611a8a565b91505092959194509250565b6000612190826118db565b9050919050565b6121a081612185565b82525050565b60006020820190506121bb6000830184612197565b92915050565b600060ff82169050919050565b6121d7816121c1565b82525050565b60006020820190506121f260008301846121ce565b92915050565b60006020828403121561220e5761220d611a69565b5b600061221c84828501611a8a565b91505092915050565b61222e816121c1565b811461223957600080fd5b50565b60008135905061224b81612225565b92915050565b60008060006060848603121561226a57612269611a69565b5b600061227886828701611e0a565b935050602061228986828701611e0a565b925050604061229a8682870161223c565b9150509250925092565b6122ad81612185565b81146122b857600080fd5b50565b6000813590506122ca816122a4565b92915050565b6000602082840312156122e6576122e5611a69565b5b60006122f4848285016122bb565b91505092915050565b60006020828403121561231357612312611a69565b5b600082013567ffffffffffffffff81111561233157612330611a6e565b5b61233d84828501611f31565b91505092915050565b600082825260208201905092915050565b7f4f776e61626c653a2063616c6c6572206973206e6f7420746865206f776e6572600082015250565b600061238d602083612346565b915061239882612357565b602082019050919050565b600060208201905081810360008301526123bc81612380565b9050919050565b600081519050919050565b600082825260208201905092915050565b6000819050602082019050919050565b600081519050919050565b600082825260208201905092915050565b6000819050602082019050919050565b600060029050919050565b600081905092915050565b6000819050919050565b61244481611bb3565b82525050565b6000612456838361243b565b60208301905092915050565b6000602082019050919050565b6124788161241b565b6124828184612426565b925061248d82612431565b8060005b838110156124be5781516124a5878261244a565b96506124b083612462565b925050600181019050612491565b505050505050565b60006124d2838361246f565b60408301905092915050565b6000602082019050919050565b60006124f6826123ef565b61250081856123fa565b935061250b8361240b565b8060005b8381101561253c57815161252388826124c6565b975061252e836124de565b92505060018101905061250f565b5085935050505092915050565b600061255583836124eb565b905092915050565b6000602082019050919050565b6000612575826123c3565b61257f81856123ce565b935083602082028501612591856123df565b8060005b858110156125cd57848403895281516125ae8582612549565b94506125b98361255d565b925060208a01995050600181019050612595565b50829750879550505050505092915050565b600060208201905081810360008301526125f9818461256a565b905092915050565b60008151905061261081611a73565b92915050565b60006020828403121561262c5761262b611a69565b5b600061263a84828501612601565b91505092915050565b7f4e487b7100000000000000000000000000000000000000000000000000000000600052603260045260246000fd5b7f4e487b7100000000000000000000000000000000000000000000000000000000600052602260045260246000fd5b600060028204905060018216806126b957607f821691505b6020821081036126cc576126cb612672565b5b50919050565b6126db81611de6565b82525050565b6126ea816121c1565b82525050565b600060608201905061270560008301866126d2565b61271260208301856126d2565b61271f60408301846126e1565b949350505050565b60005b8381101561274557808201518184015260208101905061272a565b83811115612754576000848401525b50505050565b600061276d61276884611eaf565b611b15565b90508281526020810184848401111561278957612788611eaa565b5b612794848285612727565b509392505050565b600082601f8301126127b1576127b0611a9f565b5b81516127c184826020860161275a565b91505092915050565b6000602082840312156127e0576127df611a69565b5b600082015167ffffffffffffffff8111156127fe576127fd611a6e565b5b61280a8482850161279c565b91505092915050565b61281c816119a1565b82525050565b600081519050919050565b600061283882612822565b6128428185612346565b9350612852818560208601612727565b61285b81611aa4565b840191505092915050565b600060608201905061287b6000830186612813565b818103602083015261288d818561282d565b905061289c6040830184612813565b949350505050565b60006020820190506128b96000830184612813565b92915050565b7f4e487b7100000000000000000000000000000000000000000000000000000000600052601160045260246000fd5b60006128f9826121c1565b9150612904836121c1565b92508260ff0382111561291a576129196128bf565b5b828201905092915050565b600081905092915050565b600061293b82612822565b6129458185612925565b9350612955818560208601612727565b80840191505092915050565b600061296d8284612930565b915081905092915050565b6000612983826119a1565b915061298e836119a1565b9250827fffffffffffffffffffffffffffffffffffffffffffffffffffffffffffffffff038211156129c3576129c26128bf565b5b828201905092915050565b60006129d9826119a1565b91507fffffffffffffffffffffffffffffffffffffffffffffffffffffffffffffffff8203612a0b57612a0a6128bf565b5b600182019050919050565b6000612a21826121c1565b915060ff8203612a3457612a336128bf565b5b600182019050919050565b6000612a4a826119a1565b9150612a55836119a1565b925082821015612a6857612a676128bf565b5b828203905092915050565b7f4e487b7100000000000000000000000000000000000000000000000000000000600052603160045260246000fd5b7f4f776e61626c653a206e6577206f776e657220697320746865207a65726f206160008201527f6464726573730000000000000000000000000000000000000000000000000000602082015250565b6000612afe602683612346565b9150612b0982612aa2565b604082019050919050565b60006020820190508181036000830152612b2d81612af1565b9050919050565b7f736c6963655f6f766572666c6f77000000000000000000000000000000000000600082015250565b6000612b6a600e83612346565b9150612b7582612b34565b602082019050919050565b60006020820190508181036000830152612b9981612b5d565b9050919050565b7f736c6963655f6f75744f66426f756e6473000000000000000000000000000000600082015250565b6000612bd6601183612346565b9150612be182612ba0565b602082019050919050565b60006020820190508181036000830152612c0581612bc9565b9050919050565b60006020820190508181036000830152612c26818461282d565b90509291505056fea26469706673582212203dc764979cb99897b7379d474a3a522f1d8180d98a4f428ff95f1b770f0f0c7164736f6c634300080d0033",
  "libraries": {
    "AreaCalculation": "0x9fE46736679d2D9a65F0992F2272dE9f3c7fa6e0",
    "GeohashUtils": "0xCf7Ed3AccA5a467e9e704C703E8D87F634fB0Fc9",
    "Trigonometry": "0xe7f1725E7734CE288F8367e1Bb143E90bb3F0512"
  },
  "devdoc": {
    "kind": "dev",
    "methods": {
      "addToGeotree(string,uint256)": {
        "params": {
          "_data": "the uint data",
          "_geohash": "the geohash"
        }
      },
      "getAllGeoNFTs()": {
        "returns": {
          "geoNFTsArray": "Array of all registered token IDs"
        }
      },
      "getFromGeotree(string)": {
        "params": {
          "_geohash": "the geohash"
        }
      },
      "owner()": {
        "details": "Returns the address of the current owner."
      },
      "queryGeoNFTsByLatLng(int64,int64,uint8)": {
        "params": {
          "_latitude": "Latitude",
          "_longitude": "Longitude",
          "_precision": "Precision level of the geohash searching"
        },
        "returns": {
          "_0": "geoNFTsArray Array of all registered token IDs"
        }
      },
      "registerGeoNFT(uint256,int64[2])": {
        "params": {
          "_centroid": "Centroid of the polygon passed as [latitude, longitude]",
          "_tokenId": "the index of the GeoNFT to register"
        }
      },
      "removeFromGeotree(string,uint256)": {
        "params": {
          "_data": "the uint data",
          "_geohash": "geohash"
        }
      },
      "renounceOwnership()": {
        "details": "Leaves the contract without owner. It will not be possible to call `onlyOwner` functions anymore. Can only be called by the current owner. NOTE: Renouncing ownership will leave the contract without an owner, thereby removing any functionality that is only available to the owner."
      },
      "transferOwnership(address)": {
        "details": "Transfers ownership of the contract to a new account (`newOwner`). Can only be called by the current owner."
      },
      "unregisterGeoNFT(uint256)": {
        "params": {
          "_tokenId": "the index of the GeoNFT to unregister"
        }
      },
      "updateGeoNFTTopology(uint256,int256[2][][],int64[2],string)": {
        "params": {
          "_coordinates": "Array of polygon rings",
          "_geojson": "Strigified geojson of the new topology",
          "_tokenId": "The index of the GeoNFT to update"
        }
      },
      "updateGeotree(string,string,uint256)": {
        "params": {
          "_data": "the uint data",
          "_formergeohash": "the former geohash",
          "_newgeohash": "the new geohash"
        }
      }
    },
    "version": 1
  },
  "userdoc": {
    "kind": "user",
    "methods": {
      "addToGeotree(string,uint256)": {
        "notice": "Add uint data by geohash to its relative subtree"
      },
      "constructor": {
        "notice": "Set up the Spatial Data Registry and prepopulate initial values"
      },
      "getAllGeoNFTs()": {
        "notice": "Return all the GeoNFT ids in the registry"
      },
      "getFromGeotree(string)": {
        "notice": "Get a data by geohash"
      },
      "queryGeoNFTsByLatLng(int64,int64,uint8)": {
        "notice": "Query registry by latitude, longitude and geohash depth level"
      },
      "registerGeoNFT(uint256,int64[2])": {
        "notice": "Register a GeoNFT in the Spatial Data Registry"
      },
      "removeFromGeotree(string,uint256)": {
        "notice": "Remove data from node with specified geohash"
      },
      "unregisterGeoNFT(uint256)": {
        "notice": "Unregister a GeoNFT from the Spatial Data Registry"
      },
      "updateGeoNFTTopology(uint256,int256[2][][],int64[2],string)": {
        "notice": "Update the topology of the GeoNFT"
      },
      "updateGeotree(string,string,uint256)": {
        "notice": "Update geohash"
      }
    },
    "version": 1
  },
  "storageLayout": {
    "storage": [
      {
        "astId": 115,
        "contract": "contracts/SDRegistry.sol:SDRegistry",
        "label": "_status",
        "offset": 0,
        "slot": "0",
        "type": "t_uint256"
      },
      {
        "astId": 7,
        "contract": "contracts/SDRegistry.sol:SDRegistry",
        "label": "_owner",
        "offset": 0,
        "slot": "1",
        "type": "t_address"
      },
      {
        "astId": 2691,
        "contract": "contracts/SDRegistry.sol:SDRegistry",
        "label": "geoNFT",
        "offset": 0,
        "slot": "2",
        "type": "t_contract(GeoNFT)2667"
      },
      {
        "astId": 2697,
        "contract": "contracts/SDRegistry.sol:SDRegistry",
        "label": "tokenArray",
        "offset": 0,
        "slot": "3",
        "type": "t_array(t_uint256)dyn_storage"
      },
      {
        "astId": 2706,
        "contract": "contracts/SDRegistry.sol:SDRegistry",
        "label": "geotree",
        "offset": 0,
        "slot": "4",
        "type": "t_mapping(t_string_memory_ptr,t_struct(Node)2701_storage)"
      },
      {
        "astId": 2710,
        "contract": "contracts/SDRegistry.sol:SDRegistry",
        "label": "tokenGeohash",
        "offset": 0,
        "slot": "5",
        "type": "t_mapping(t_uint256,t_string_storage)"
      }
    ],
    "types": {
      "t_address": {
        "encoding": "inplace",
        "label": "address",
        "numberOfBytes": "20"
      },
      "t_array(t_uint256)dyn_storage": {
        "base": "t_uint256",
        "encoding": "dynamic_array",
        "label": "uint256[]",
        "numberOfBytes": "32"
      },
      "t_contract(GeoNFT)2667": {
        "encoding": "inplace",
        "label": "contract GeoNFT",
        "numberOfBytes": "20"
      },
      "t_mapping(t_string_memory_ptr,t_struct(Node)2701_storage)": {
        "encoding": "mapping",
        "key": "t_string_memory_ptr",
        "label": "mapping(string => struct SDRegistry.Node)",
        "numberOfBytes": "32",
        "value": "t_struct(Node)2701_storage"
      },
      "t_mapping(t_uint256,t_string_storage)": {
        "encoding": "mapping",
        "key": "t_uint256",
        "label": "mapping(uint256 => string)",
        "numberOfBytes": "32",
        "value": "t_string_storage"
      },
      "t_string_memory_ptr": {
        "encoding": "bytes",
        "label": "string",
        "numberOfBytes": "32"
      },
      "t_string_storage": {
        "encoding": "bytes",
        "label": "string",
        "numberOfBytes": "32"
      },
      "t_struct(Node)2701_storage": {
        "encoding": "inplace",
        "label": "struct SDRegistry.Node",
        "members": [
          {
            "astId": 2700,
            "contract": "contracts/SDRegistry.sol:SDRegistry",
            "label": "data",
            "offset": 0,
            "slot": "0",
            "type": "t_array(t_uint256)dyn_storage"
          }
        ],
        "numberOfBytes": "32"
      },
      "t_uint256": {
        "encoding": "inplace",
        "label": "uint256",
        "numberOfBytes": "32"
      }
    }
  }
}