{
  "address": "0xFD1D76b2944a0FE061A2753d184ee058363dB894",
  "abi": [
    {
      "inputs": [
        {
          "internalType": "int256[2][]",
          "name": "_coordinates",
          "type": "int256[2][]"
        }
      ],
      "name": "isPolygon",
      "outputs": [
        {
          "internalType": "bool",
          "name": "",
          "type": "bool"
        }
      ],
      "stateMutability": "pure",
      "type": "function"
    },
    {
      "inputs": [
        {
          "internalType": "int256[2][][][]",
          "name": "_coordinates",
          "type": "int256[2][][][]"
        }
      ],
      "name": "multiPolygonArea",
      "outputs": [
        {
          "internalType": "uint256",
          "name": "",
          "type": "uint256"
        }
      ],
      "stateMutability": "pure",
      "type": "function"
    },
    {
      "inputs": [
        {
          "internalType": "int256[2][][]",
          "name": "_coordinates",
          "type": "int256[2][][]"
        }
      ],
      "name": "polygonArea",
      "outputs": [
        {
          "internalType": "uint256",
          "name": "",
          "type": "uint256"
        }
      ],
      "stateMutability": "pure",
      "type": "function"
    }
  ],
  "transactionHash": "0x116aee41214bd34fd7a0775348a1b2fab53ae706462409252f44ea7cb5f1b924",
  "args": [],
  "numDeployments": 2,
  "solcInputHash": "8028b60751616fe7bdfb60dcc3292f30",
  "bytecode": "0x611369610053600b82828239805160001a607314610046577f4e487b7100000000000000000000000000000000000000000000000000000000600052600060045260246000fd5b30600052607381538281f3fe730000000000000000000000000000000000000000301460806040526004361061004b5760003560e01c806323b2230514610050578063d818e7c414610080578063defe2c1c146100b0575b600080fd5b61006a60048036038101906100659190610b17565b6100e0565b6040516100779190610b79565b60405180910390f35b61009a60048036038101906100959190610b94565b610140565b6040516100a79190610bf8565b60405180910390f35b6100ca60048036038101906100c59190610c13565b61026b565b6040516100d79190610b79565b60405180910390f35b6000806000905060005b83518110156101365761011684828151811061010957610108610c5c565b5b602002602001015161026b565b826101219190610cba565b9150808061012e90610d10565b9150506100ea565b5080915050919050565b6000808251905060028111156102605760008360008151811061016657610165610c5c565b5b602002602001015160006002811061018157610180610c5c565b5b6020020151905060008460008151811061019e5761019d610c5c565b5b60200260200101516001600281106101b9576101b8610c5c565b5b602002015190506000856001856101d09190610d58565b815181106101e1576101e0610c5c565b5b60200260200101516000600281106101fc576101fb610c5c565b5b602002015190506000866001866102139190610d58565b8151811061022457610223610c5c565b5b602002602001015160016002811061023f5761023e610c5c565b5b60200201519050818414801561025457508083145b95505050505050610266565b60009150505b919050565b60008060009050600083511115610312576102a86102a38460008151811061029657610295610c5c565b5b602002602001015161031b565b6105ae565b816102b39190610d8c565b90506000600190505b8351811015610310576102f06102eb8583815181106102de576102dd610c5c565b5b602002602001015161031b565b6105ae565b826102fb9190610e20565b9150808061030890610d10565b9150506102bc565b505b80915050919050565b60008061032783610140565b90506001151581151514610370576040517f08c379a000000000000000000000000000000000000000000000000000000000815260040161036790610f11565b60405180910390fd5b60008351905061037e6106df565b6103866106df565b61038e6106df565b60008060008060009050600288111561059d5760005b8881101561053e576002896103b99190610d58565b81036103e6576002896103cc9190610d58565b94506001896103db9190610d58565b935060009250610438565b6001896103f39190610d58565b8103610415576001896104069190610d58565b94506000935060019250610437565b8094506001816104259190610cba565b93506002816104349190610cba565b92505b5b8b858151811061044b5761044a610c5c565b5b602002602001015197508b848151811061046857610467610c5c565b5b602002602001015196508b838151811061048557610484610c5c565b5b6020026020010151955060006104b2876000600281106104a8576104a7610c5c565b5b60200201516105d0565b905060006104d78a6000600281106104cd576104cc610c5c565b5b60200201516105d0565b905060006104fc8a6001600281106104f2576104f1610c5c565b5b6020020151610604565b9050600081838561050d9190610e20565b6105179190610f31565b905080866105259190610d8c565b955050505050808061053690610d10565b9150506103a4565b50633b9aca0080633b9aca008060026105579190610f31565b6105619190610f31565b61056b9190610f31565b6105759190610f31565b6002626136c061058591906111a4565b826105909190610f31565b61059a919061123f565b90505b809950505050505050505050919050565b6000808212156105c757816105c2906112a9565b6105c9565b815b9050919050565b600060b4633b9aca0063bb40e64d846105e99190610f31565b6105f39190610f31565b6105fd919061123f565b9050919050565b600080634000000090506000637fffffff90506000633b9aca0061016861062b9190610f31565b83866106379190610f31565b610641919061123f565b905081633b9aca00731429127E953939f2F468153154a763190179580b63cb5cc109846040518263ffffffff1660e01b81526004016106809190610b79565b602060405180830381865af415801561069d573d6000803e3d6000fd5b505050506040513d601f19601f820116820180604052508101906106c19190611306565b6106cb9190610f31565b6106d5919061123f565b9350505050919050565b6040518060400160405280600290602082028036833780820191505090505090565b6000604051905090565b600080fd5b600080fd5b600080fd5b6000601f19601f8301169050919050565b7f4e487b7100000000000000000000000000000000000000000000000000000000600052604160045260246000fd5b6107638261071a565b810181811067ffffffffffffffff821117156107825761078161072b565b5b80604052505050565b6000610795610701565b90506107a1828261075a565b919050565b600067ffffffffffffffff8211156107c1576107c061072b565b5b602082029050602081019050919050565b600080fd5b600067ffffffffffffffff8211156107f2576107f161072b565b5b602082029050602081019050919050565b600067ffffffffffffffff82111561081e5761081d61072b565b5b602082029050602081019050919050565b600067ffffffffffffffff82111561084a5761084961072b565b5b602082029050919050565b6000819050919050565b61086881610855565b811461087357600080fd5b50565b6000813590506108858161085f565b92915050565b600061089e6108998461082f565b61078b565b905080602084028301858111156108b8576108b76107d2565b5b835b818110156108e157806108cd8882610876565b8452602084019350506020810190506108ba565b5050509392505050565b600082601f830112610900576108ff610715565b5b600261090d84828561088b565b91505092915050565b600061092961092484610803565b61078b565b9050808382526020820190506040840283018581111561094c5761094b6107d2565b5b835b81811015610975578061096188826108eb565b84526020840193505060408101905061094e565b5050509392505050565b600082601f83011261099457610993610715565b5b81356109a4848260208601610916565b91505092915050565b60006109c06109bb846107d7565b61078b565b905080838252602082019050602084028301858111156109e3576109e26107d2565b5b835b81811015610a2a57803567ffffffffffffffff811115610a0857610a07610715565b5b808601610a15898261097f565b855260208501945050506020810190506109e5565b5050509392505050565b600082601f830112610a4957610a48610715565b5b8135610a598482602086016109ad565b91505092915050565b6000610a75610a70846107a6565b61078b565b90508083825260208201905060208402830185811115610a9857610a976107d2565b5b835b81811015610adf57803567ffffffffffffffff811115610abd57610abc610715565b5b808601610aca8982610a34565b85526020850194505050602081019050610a9a565b5050509392505050565b600082601f830112610afe57610afd610715565b5b8135610b0e848260208601610a62565b91505092915050565b600060208284031215610b2d57610b2c61070b565b5b600082013567ffffffffffffffff811115610b4b57610b4a610710565b5b610b5784828501610ae9565b91505092915050565b6000819050919050565b610b7381610b60565b82525050565b6000602082019050610b8e6000830184610b6a565b92915050565b600060208284031215610baa57610ba961070b565b5b600082013567ffffffffffffffff811115610bc857610bc7610710565b5b610bd48482850161097f565b91505092915050565b60008115159050919050565b610bf281610bdd565b82525050565b6000602082019050610c0d6000830184610be9565b92915050565b600060208284031215610c2957610c2861070b565b5b600082013567ffffffffffffffff811115610c4757610c46610710565b5b610c5384828501610a34565b91505092915050565b7f4e487b7100000000000000000000000000000000000000000000000000000000600052603260045260246000fd5b7f4e487b7100000000000000000000000000000000000000000000000000000000600052601160045260246000fd5b6000610cc582610b60565b9150610cd083610b60565b9250827fffffffffffffffffffffffffffffffffffffffffffffffffffffffffffffffff03821115610d0557610d04610c8b565b5b828201905092915050565b6000610d1b82610b60565b91507fffffffffffffffffffffffffffffffffffffffffffffffffffffffffffffffff8203610d4d57610d4c610c8b565b5b600182019050919050565b6000610d6382610b60565b9150610d6e83610b60565b925082821015610d8157610d80610c8b565b5b828203905092915050565b6000610d9782610855565b9150610da283610855565b9250817f7fffffffffffffffffffffffffffffffffffffffffffffffffffffffffffffff03831360008312151615610ddd57610ddc610c8b565b5b817f8000000000000000000000000000000000000000000000000000000000000000038312600083121615610e1557610e14610c8b565b5b828201905092915050565b6000610e2b82610855565b9150610e3683610855565b9250827f800000000000000000000000000000000000000000000000000000000000000001821260008412151615610e7157610e70610c8b565b5b827f7fffffffffffffffffffffffffffffffffffffffffffffffffffffffffffffff018213600084121615610ea957610ea8610c8b565b5b828203905092915050565b600082825260208201905092915050565b7f54686520636f6f7264696e617465732061726520696e76616c69640000000000600082015250565b6000610efb601b83610eb4565b9150610f0682610ec5565b602082019050919050565b60006020820190508181036000830152610f2a81610eee565b9050919050565b6000610f3c82610855565b9150610f4783610855565b9250827f7fffffffffffffffffffffffffffffffffffffffffffffffffffffffffffffff0482116000841360008413161615610f8657610f85610c8b565b5b817f80000000000000000000000000000000000000000000000000000000000000000583126000841260008413161615610fc357610fc2610c8b565b5b827f8000000000000000000000000000000000000000000000000000000000000000058212600084136000841216161561100057610fff610c8b565b5b827f7fffffffffffffffffffffffffffffffffffffffffffffffffffffffffffffff058212600084126000841216161561103d5761103c610c8b565b5b828202905092915050565b60008160011c9050919050565b6000808291508390505b600185111561109f5780860481111561107b5761107a610c8b565b5b600185161561108a5780820291505b808102905061109885611048565b945061105f565b94509492505050565b600082600081146110c057600181146110ca576110d3565b600191505061118f565b8291505061118f565b50816110e2576000905061118f565b6001905060008213600181146110ff57600081146111175761112b565b82860483111561111257611111610c8b565b5b61112b565b82860583121561112a57611129610c8b565b5b5b506001831615611139578190505b818202915061114783611048565b925061115585848484611055565b92509050818504811160008213161561117157611170610c8b565b5b818405811260008212161561118957611188610c8b565b5b81810290505b949350505050565b600060ff82169050919050565b60006111af82610855565b91506111ba83611197565b92506112087f7fffffffffffffffffffffffffffffffffffffffffffffffffffffffffffffff7f800000000000000000000000000000000000000000000000000000000000000085856110a8565b905092915050565b7f4e487b7100000000000000000000000000000000000000000000000000000000600052601260045260246000fd5b600061124a82610855565b915061125583610855565b92508261126557611264611210565b5b600160000383147f80000000000000000000000000000000000000000000000000000000000000008314161561129e5761129d610c8b565b5b828205905092915050565b60006112b482610855565b91507f800000000000000000000000000000000000000000000000000000000000000082036112e6576112e5610c8b565b5b816000039050919050565b6000815190506113008161085f565b92915050565b60006020828403121561131c5761131b61070b565b5b600061132a848285016112f1565b9150509291505056fea2646970667358221220c7a3886aa4c70d1c482a4bf3d4a93b5cb4dfb1ac7dd05b6b84f528efdce47a0864736f6c634300080d0033",
  "deployedBytecode": "0x730000000000000000000000000000000000000000301460806040526004361061004b5760003560e01c806323b2230514610050578063d818e7c414610080578063defe2c1c146100b0575b600080fd5b61006a60048036038101906100659190610b17565b6100e0565b6040516100779190610b79565b60405180910390f35b61009a60048036038101906100959190610b94565b610140565b6040516100a79190610bf8565b60405180910390f35b6100ca60048036038101906100c59190610c13565b61026b565b6040516100d79190610b79565b60405180910390f35b6000806000905060005b83518110156101365761011684828151811061010957610108610c5c565b5b602002602001015161026b565b826101219190610cba565b9150808061012e90610d10565b9150506100ea565b5080915050919050565b6000808251905060028111156102605760008360008151811061016657610165610c5c565b5b602002602001015160006002811061018157610180610c5c565b5b6020020151905060008460008151811061019e5761019d610c5c565b5b60200260200101516001600281106101b9576101b8610c5c565b5b602002015190506000856001856101d09190610d58565b815181106101e1576101e0610c5c565b5b60200260200101516000600281106101fc576101fb610c5c565b5b602002015190506000866001866102139190610d58565b8151811061022457610223610c5c565b5b602002602001015160016002811061023f5761023e610c5c565b5b60200201519050818414801561025457508083145b95505050505050610266565b60009150505b919050565b60008060009050600083511115610312576102a86102a38460008151811061029657610295610c5c565b5b602002602001015161031b565b6105ae565b816102b39190610d8c565b90506000600190505b8351811015610310576102f06102eb8583815181106102de576102dd610c5c565b5b602002602001015161031b565b6105ae565b826102fb9190610e20565b9150808061030890610d10565b9150506102bc565b505b80915050919050565b60008061032783610140565b90506001151581151514610370576040517f08c379a000000000000000000000000000000000000000000000000000000000815260040161036790610f11565b60405180910390fd5b60008351905061037e6106df565b6103866106df565b61038e6106df565b60008060008060009050600288111561059d5760005b8881101561053e576002896103b99190610d58565b81036103e6576002896103cc9190610d58565b94506001896103db9190610d58565b935060009250610438565b6001896103f39190610d58565b8103610415576001896104069190610d58565b94506000935060019250610437565b8094506001816104259190610cba565b93506002816104349190610cba565b92505b5b8b858151811061044b5761044a610c5c565b5b602002602001015197508b848151811061046857610467610c5c565b5b602002602001015196508b838151811061048557610484610c5c565b5b6020026020010151955060006104b2876000600281106104a8576104a7610c5c565b5b60200201516105d0565b905060006104d78a6000600281106104cd576104cc610c5c565b5b60200201516105d0565b905060006104fc8a6001600281106104f2576104f1610c5c565b5b6020020151610604565b9050600081838561050d9190610e20565b6105179190610f31565b905080866105259190610d8c565b955050505050808061053690610d10565b9150506103a4565b50633b9aca0080633b9aca008060026105579190610f31565b6105619190610f31565b61056b9190610f31565b6105759190610f31565b6002626136c061058591906111a4565b826105909190610f31565b61059a919061123f565b90505b809950505050505050505050919050565b6000808212156105c757816105c2906112a9565b6105c9565b815b9050919050565b600060b4633b9aca0063bb40e64d846105e99190610f31565b6105f39190610f31565b6105fd919061123f565b9050919050565b600080634000000090506000637fffffff90506000633b9aca0061016861062b9190610f31565b83866106379190610f31565b610641919061123f565b905081633b9aca0073__$ace459064953959b6034b32bdfe6b7b52f$__63cb5cc109846040518263ffffffff1660e01b81526004016106809190610b79565b602060405180830381865af415801561069d573d6000803e3d6000fd5b505050506040513d601f19601f820116820180604052508101906106c19190611306565b6106cb9190610f31565b6106d5919061123f565b9350505050919050565b6040518060400160405280600290602082028036833780820191505090505090565b6000604051905090565b600080fd5b600080fd5b600080fd5b6000601f19601f8301169050919050565b7f4e487b7100000000000000000000000000000000000000000000000000000000600052604160045260246000fd5b6107638261071a565b810181811067ffffffffffffffff821117156107825761078161072b565b5b80604052505050565b6000610795610701565b90506107a1828261075a565b919050565b600067ffffffffffffffff8211156107c1576107c061072b565b5b602082029050602081019050919050565b600080fd5b600067ffffffffffffffff8211156107f2576107f161072b565b5b602082029050602081019050919050565b600067ffffffffffffffff82111561081e5761081d61072b565b5b602082029050602081019050919050565b600067ffffffffffffffff82111561084a5761084961072b565b5b602082029050919050565b6000819050919050565b61086881610855565b811461087357600080fd5b50565b6000813590506108858161085f565b92915050565b600061089e6108998461082f565b61078b565b905080602084028301858111156108b8576108b76107d2565b5b835b818110156108e157806108cd8882610876565b8452602084019350506020810190506108ba565b5050509392505050565b600082601f830112610900576108ff610715565b5b600261090d84828561088b565b91505092915050565b600061092961092484610803565b61078b565b9050808382526020820190506040840283018581111561094c5761094b6107d2565b5b835b81811015610975578061096188826108eb565b84526020840193505060408101905061094e565b5050509392505050565b600082601f83011261099457610993610715565b5b81356109a4848260208601610916565b91505092915050565b60006109c06109bb846107d7565b61078b565b905080838252602082019050602084028301858111156109e3576109e26107d2565b5b835b81811015610a2a57803567ffffffffffffffff811115610a0857610a07610715565b5b808601610a15898261097f565b855260208501945050506020810190506109e5565b5050509392505050565b600082601f830112610a4957610a48610715565b5b8135610a598482602086016109ad565b91505092915050565b6000610a75610a70846107a6565b61078b565b90508083825260208201905060208402830185811115610a9857610a976107d2565b5b835b81811015610adf57803567ffffffffffffffff811115610abd57610abc610715565b5b808601610aca8982610a34565b85526020850194505050602081019050610a9a565b5050509392505050565b600082601f830112610afe57610afd610715565b5b8135610b0e848260208601610a62565b91505092915050565b600060208284031215610b2d57610b2c61070b565b5b600082013567ffffffffffffffff811115610b4b57610b4a610710565b5b610b5784828501610ae9565b91505092915050565b6000819050919050565b610b7381610b60565b82525050565b6000602082019050610b8e6000830184610b6a565b92915050565b600060208284031215610baa57610ba961070b565b5b600082013567ffffffffffffffff811115610bc857610bc7610710565b5b610bd48482850161097f565b91505092915050565b60008115159050919050565b610bf281610bdd565b82525050565b6000602082019050610c0d6000830184610be9565b92915050565b600060208284031215610c2957610c2861070b565b5b600082013567ffffffffffffffff811115610c4757610c46610710565b5b610c5384828501610a34565b91505092915050565b7f4e487b7100000000000000000000000000000000000000000000000000000000600052603260045260246000fd5b7f4e487b7100000000000000000000000000000000000000000000000000000000600052601160045260246000fd5b6000610cc582610b60565b9150610cd083610b60565b9250827fffffffffffffffffffffffffffffffffffffffffffffffffffffffffffffffff03821115610d0557610d04610c8b565b5b828201905092915050565b6000610d1b82610b60565b91507fffffffffffffffffffffffffffffffffffffffffffffffffffffffffffffffff8203610d4d57610d4c610c8b565b5b600182019050919050565b6000610d6382610b60565b9150610d6e83610b60565b925082821015610d8157610d80610c8b565b5b828203905092915050565b6000610d9782610855565b9150610da283610855565b9250817f7fffffffffffffffffffffffffffffffffffffffffffffffffffffffffffffff03831360008312151615610ddd57610ddc610c8b565b5b817f8000000000000000000000000000000000000000000000000000000000000000038312600083121615610e1557610e14610c8b565b5b828201905092915050565b6000610e2b82610855565b9150610e3683610855565b9250827f800000000000000000000000000000000000000000000000000000000000000001821260008412151615610e7157610e70610c8b565b5b827f7fffffffffffffffffffffffffffffffffffffffffffffffffffffffffffffff018213600084121615610ea957610ea8610c8b565b5b828203905092915050565b600082825260208201905092915050565b7f54686520636f6f7264696e617465732061726520696e76616c69640000000000600082015250565b6000610efb601b83610eb4565b9150610f0682610ec5565b602082019050919050565b60006020820190508181036000830152610f2a81610eee565b9050919050565b6000610f3c82610855565b9150610f4783610855565b9250827f7fffffffffffffffffffffffffffffffffffffffffffffffffffffffffffffff0482116000841360008413161615610f8657610f85610c8b565b5b817f80000000000000000000000000000000000000000000000000000000000000000583126000841260008413161615610fc357610fc2610c8b565b5b827f8000000000000000000000000000000000000000000000000000000000000000058212600084136000841216161561100057610fff610c8b565b5b827f7fffffffffffffffffffffffffffffffffffffffffffffffffffffffffffffff058212600084126000841216161561103d5761103c610c8b565b5b828202905092915050565b60008160011c9050919050565b6000808291508390505b600185111561109f5780860481111561107b5761107a610c8b565b5b600185161561108a5780820291505b808102905061109885611048565b945061105f565b94509492505050565b600082600081146110c057600181146110ca576110d3565b600191505061118f565b8291505061118f565b50816110e2576000905061118f565b6001905060008213600181146110ff57600081146111175761112b565b82860483111561111257611111610c8b565b5b61112b565b82860583121561112a57611129610c8b565b5b5b506001831615611139578190505b818202915061114783611048565b925061115585848484611055565b92509050818504811160008213161561117157611170610c8b565b5b818405811260008212161561118957611188610c8b565b5b81810290505b949350505050565b600060ff82169050919050565b60006111af82610855565b91506111ba83611197565b92506112087f7fffffffffffffffffffffffffffffffffffffffffffffffffffffffffffffff7f800000000000000000000000000000000000000000000000000000000000000085856110a8565b905092915050565b7f4e487b7100000000000000000000000000000000000000000000000000000000600052601260045260246000fd5b600061124a82610855565b915061125583610855565b92508261126557611264611210565b5b600160000383147f80000000000000000000000000000000000000000000000000000000000000008314161561129e5761129d610c8b565b5b828205905092915050565b60006112b482610855565b91507f800000000000000000000000000000000000000000000000000000000000000082036112e6576112e5610c8b565b5b816000039050919050565b6000815190506113008161085f565b92915050565b60006020828403121561131c5761131b61070b565b5b600061132a848285016112f1565b9150509291505056fea2646970667358221220c7a3886aa4c70d1c482a4bf3d4a93b5cb4dfb1ac7dd05b6b84f528efdce47a0864736f6c634300080d0033",
  "libraries": {
    "Trigonometry": "0x1429127E953939f2F468153154a763190179580b"
  },
  "devdoc": {
    "kind": "dev",
    "methods": {
      "isPolygon(int256[2][])": {
        "params": {
          "_coordinates": "Polygon ring"
        },
        "returns": {
          "_0": "Boolean whether the coordinates represents a closed polygon or not"
        }
      },
      "multiPolygonArea(int256[2][][][])": {
        "params": {
          "_coordinates": "Big Number integer coordinates of a multi polygon"
        },
        "returns": {
          "_0": "Area measured in square meters"
        }
      },
      "polygonArea(int256[2][][])": {
        "params": {
          "_coordinates": "Big Number integer coordinates of a single polygon - an array of rings"
        },
        "returns": {
          "_0": "Area measured in square meters"
        }
      }
    },
    "version": 1
  },
  "userdoc": {
    "kind": "user",
    "methods": {
      "isPolygon(int256[2][])": {
        "notice": "Checks to make sure first and last coordinates are the same"
      },
      "multiPolygonArea(int256[2][][][])": {
        "notice": "Calculate the area of a multi polygon coordinates"
      },
      "polygonArea(int256[2][][])": {
        "notice": "Calculate the area of a single polygon coordinates"
      }
    },
    "version": 1
  },
  "storageLayout": {
    "storage": [],
    "types": null
  }
}