{
  "address": "0xDF17E40C8F523edB44e1c8DbE3328e37E6ef6069",
  "abi": [
    {
      "inputs": [],
      "stateMutability": "nonpayable",
      "type": "constructor"
    },
    {
      "anonymous": false,
      "inputs": [
        {
          "indexed": true,
          "internalType": "address",
          "name": "owner",
          "type": "address"
        },
        {
          "indexed": true,
          "internalType": "address",
          "name": "approved",
          "type": "address"
        },
        {
          "indexed": true,
          "internalType": "uint256",
          "name": "tokenId",
          "type": "uint256"
        }
      ],
      "name": "Approval",
      "type": "event"
    },
    {
      "anonymous": false,
      "inputs": [
        {
          "indexed": true,
          "internalType": "address",
          "name": "owner",
          "type": "address"
        },
        {
          "indexed": true,
          "internalType": "address",
          "name": "operator",
          "type": "address"
        },
        {
          "indexed": false,
          "internalType": "bool",
          "name": "approved",
          "type": "bool"
        }
      ],
      "name": "ApprovalForAll",
      "type": "event"
    },
    {
      "anonymous": false,
      "inputs": [
        {
          "indexed": true,
          "internalType": "address",
          "name": "previousOwner",
          "type": "address"
        },
        {
          "indexed": true,
          "internalType": "address",
          "name": "newOwner",
          "type": "address"
        }
      ],
      "name": "OwnershipTransferred",
      "type": "event"
    },
    {
      "anonymous": false,
      "inputs": [
        {
          "indexed": true,
          "internalType": "address",
          "name": "from",
          "type": "address"
        },
        {
          "indexed": true,
          "internalType": "address",
          "name": "to",
          "type": "address"
        },
        {
          "indexed": true,
          "internalType": "uint256",
          "name": "tokenId",
          "type": "uint256"
        }
      ],
      "name": "Transfer",
      "type": "event"
    },
    {
      "inputs": [
        {
          "internalType": "address",
          "name": "to",
          "type": "address"
        },
        {
          "internalType": "uint256",
          "name": "tokenId",
          "type": "uint256"
        }
      ],
      "name": "approve",
      "outputs": [],
      "stateMutability": "nonpayable",
      "type": "function"
    },
    {
      "inputs": [
        {
          "internalType": "address",
          "name": "owner",
          "type": "address"
        }
      ],
      "name": "balanceOf",
      "outputs": [
        {
          "internalType": "uint256",
          "name": "",
          "type": "uint256"
        }
      ],
      "stateMutability": "view",
      "type": "function"
    },
    {
      "inputs": [
        {
          "internalType": "uint256",
          "name": "tokenId",
          "type": "uint256"
        }
      ],
      "name": "burn",
      "outputs": [],
      "stateMutability": "nonpayable",
      "type": "function"
    },
    {
      "inputs": [
        {
          "internalType": "uint256",
          "name": "tokenId",
          "type": "uint256"
        }
      ],
      "name": "geoJson",
      "outputs": [
        {
          "internalType": "string",
          "name": "",
          "type": "string"
        }
      ],
      "stateMutability": "view",
      "type": "function"
    },
    {
      "inputs": [
        {
          "internalType": "uint256",
          "name": "tokenId",
          "type": "uint256"
        }
      ],
      "name": "getApproved",
      "outputs": [
        {
          "internalType": "address",
          "name": "",
          "type": "address"
        }
      ],
      "stateMutability": "view",
      "type": "function"
    },
    {
      "inputs": [
        {
          "internalType": "uint256",
          "name": "_tokenId",
          "type": "uint256"
        }
      ],
      "name": "getEcologicalIndex",
      "outputs": [
        {
          "components": [
            {
              "internalType": "string",
              "name": "indexType",
              "type": "string"
            },
            {
              "internalType": "int256",
              "name": "indexValue",
              "type": "int256"
            }
          ],
          "internalType": "struct GeoNFT.EcologicalIndex",
          "name": "",
          "type": "tuple"
        }
      ],
      "stateMutability": "view",
      "type": "function"
    },
    {
      "inputs": [
        {
          "internalType": "address",
          "name": "owner",
          "type": "address"
        }
      ],
      "name": "getTokensByOwner",
      "outputs": [
        {
          "internalType": "uint256[]",
          "name": "",
          "type": "uint256[]"
        },
        {
          "internalType": "string[]",
          "name": "",
          "type": "string[]"
        },
        {
          "internalType": "string[]",
          "name": "",
          "type": "string[]"
        }
      ],
      "stateMutability": "view",
      "type": "function"
    },
    {
      "inputs": [
        {
          "internalType": "address",
          "name": "owner",
          "type": "address"
        },
        {
          "internalType": "address",
          "name": "operator",
          "type": "address"
        }
      ],
      "name": "isApprovedForAll",
      "outputs": [
        {
          "internalType": "bool",
          "name": "",
          "type": "bool"
        }
      ],
      "stateMutability": "view",
      "type": "function"
    },
    {
      "inputs": [],
      "name": "name",
      "outputs": [
        {
          "internalType": "string",
          "name": "",
          "type": "string"
        }
      ],
      "stateMutability": "view",
      "type": "function"
    },
    {
      "inputs": [],
      "name": "owner",
      "outputs": [
        {
          "internalType": "address",
          "name": "",
          "type": "address"
        }
      ],
      "stateMutability": "view",
      "type": "function"
    },
    {
      "inputs": [
        {
          "internalType": "uint256",
          "name": "tokenId",
          "type": "uint256"
        }
      ],
      "name": "ownerOf",
      "outputs": [
        {
          "internalType": "address",
          "name": "",
          "type": "address"
        }
      ],
      "stateMutability": "view",
      "type": "function"
    },
    {
      "inputs": [],
      "name": "renounceOwnership",
      "outputs": [],
      "stateMutability": "nonpayable",
      "type": "function"
    },
    {
      "inputs": [
        {
          "internalType": "address",
          "name": "to",
          "type": "address"
        },
        {
          "internalType": "string",
          "name": "uri",
          "type": "string"
        },
        {
          "internalType": "string",
          "name": "_geoJson",
          "type": "string"
        }
      ],
      "name": "safeMint",
      "outputs": [],
      "stateMutability": "nonpayable",
      "type": "function"
    },
    {
      "inputs": [
        {
          "internalType": "address",
          "name": "from",
          "type": "address"
        },
        {
          "internalType": "address",
          "name": "to",
          "type": "address"
        },
        {
          "internalType": "uint256",
          "name": "tokenId",
          "type": "uint256"
        }
      ],
      "name": "safeTransferFrom",
      "outputs": [],
      "stateMutability": "nonpayable",
      "type": "function"
    },
    {
      "inputs": [
        {
          "internalType": "address",
          "name": "from",
          "type": "address"
        },
        {
          "internalType": "address",
          "name": "to",
          "type": "address"
        },
        {
          "internalType": "uint256",
          "name": "tokenId",
          "type": "uint256"
        },
        {
          "internalType": "bytes",
          "name": "data",
          "type": "bytes"
        }
      ],
      "name": "safeTransferFrom",
      "outputs": [],
      "stateMutability": "nonpayable",
      "type": "function"
    },
    {
      "inputs": [
        {
          "internalType": "address",
          "name": "operator",
          "type": "address"
        },
        {
          "internalType": "bool",
          "name": "approved",
          "type": "bool"
        }
      ],
      "name": "setApprovalForAll",
      "outputs": [],
      "stateMutability": "nonpayable",
      "type": "function"
    },
    {
      "inputs": [
        {
          "internalType": "uint256",
          "name": "_tokenId",
          "type": "uint256"
        },
        {
          "internalType": "string",
          "name": "_indexType",
          "type": "string"
        },
        {
          "internalType": "int256",
          "name": "_indexValue",
          "type": "int256"
        }
      ],
      "name": "setEcologicalIndex",
      "outputs": [],
      "stateMutability": "nonpayable",
      "type": "function"
    },
    {
      "inputs": [
        {
          "internalType": "uint256",
          "name": "tokenId",
          "type": "uint256"
        },
        {
          "internalType": "string",
          "name": "_geoJson",
          "type": "string"
        }
      ],
      "name": "setGeoJson",
      "outputs": [],
      "stateMutability": "nonpayable",
      "type": "function"
    },
    {
      "inputs": [
        {
          "internalType": "uint256",
          "name": "tokenId",
          "type": "uint256"
        },
        {
          "internalType": "string",
          "name": "uri",
          "type": "string"
        }
      ],
      "name": "setTokenURI",
      "outputs": [],
      "stateMutability": "nonpayable",
      "type": "function"
    },
    {
      "inputs": [
        {
          "internalType": "bytes4",
          "name": "interfaceId",
          "type": "bytes4"
        }
      ],
      "name": "supportsInterface",
      "outputs": [
        {
          "internalType": "bool",
          "name": "",
          "type": "bool"
        }
      ],
      "stateMutability": "view",
      "type": "function"
    },
    {
      "inputs": [],
      "name": "symbol",
      "outputs": [
        {
          "internalType": "string",
          "name": "",
          "type": "string"
        }
      ],
      "stateMutability": "view",
      "type": "function"
    },
    {
      "inputs": [
        {
          "internalType": "uint256",
          "name": "index",
          "type": "uint256"
        }
      ],
      "name": "tokenByIndex",
      "outputs": [
        {
          "internalType": "uint256",
          "name": "",
          "type": "uint256"
        }
      ],
      "stateMutability": "view",
      "type": "function"
    },
    {
      "inputs": [
        {
          "internalType": "address",
          "name": "owner",
          "type": "address"
        },
        {
          "internalType": "uint256",
          "name": "index",
          "type": "uint256"
        }
      ],
      "name": "tokenOfOwnerByIndex",
      "outputs": [
        {
          "internalType": "uint256",
          "name": "",
          "type": "uint256"
        }
      ],
      "stateMutability": "view",
      "type": "function"
    },
    {
      "inputs": [
        {
          "internalType": "uint256",
          "name": "tokenId",
          "type": "uint256"
        }
      ],
      "name": "tokenURI",
      "outputs": [
        {
          "internalType": "string",
          "name": "",
          "type": "string"
        }
      ],
      "stateMutability": "view",
      "type": "function"
    },
    {
      "inputs": [],
      "name": "totalSupply",
      "outputs": [
        {
          "internalType": "uint256",
          "name": "",
          "type": "uint256"
        }
      ],
      "stateMutability": "view",
      "type": "function"
    },
    {
      "inputs": [
        {
          "internalType": "address",
          "name": "from",
          "type": "address"
        },
        {
          "internalType": "address",
          "name": "to",
          "type": "address"
        },
        {
          "internalType": "uint256",
          "name": "tokenId",
          "type": "uint256"
        }
      ],
      "name": "transferFrom",
      "outputs": [],
      "stateMutability": "nonpayable",
      "type": "function"
    },
    {
      "inputs": [
        {
          "internalType": "address",
          "name": "newOwner",
          "type": "address"
        }
      ],
      "name": "transferOwnership",
      "outputs": [],
      "stateMutability": "nonpayable",
      "type": "function"
    }
  ],
  "transactionHash": "0x5253e701a0ba3ffe2228a906ae49c689ee23aef824557b2e69d4489f9c922c91",
  "args": [],
  "numDeployments": 2,
  "solcInputHash": "8028b60751616fe7bdfb60dcc3292f30",
  "bytecode": "0x60806040523480156200001157600080fd5b506040518060400160405280600d81526020017f47454f4e4654204d696e746572000000000000000000000000000000000000008152506040518060400160405280600681526020017f47454f4e46540000000000000000000000000000000000000000000000000000815250816000908051906020019062000096929190620001a6565b508060019080519060200190620000af929190620001a6565b505050620000d2620000c6620000d860201b60201c565b620000e060201b60201c565b620002ba565b600033905090565b6000600b60009054906101000a900473ffffffffffffffffffffffffffffffffffffffff16905081600b60006101000a81548173ffffffffffffffffffffffffffffffffffffffff021916908373ffffffffffffffffffffffffffffffffffffffff1602179055508173ffffffffffffffffffffffffffffffffffffffff168173ffffffffffffffffffffffffffffffffffffffff167f8be0079c531659141344cd1fd0a4f28419497f9722a3daafe3b4186f6b6457e060405160405180910390a35050565b828054620001b49062000285565b90600052602060002090601f016020900481019282620001d8576000855562000224565b82601f10620001f357805160ff191683800117855562000224565b8280016001018555821562000224579182015b828111156200022357825182559160200191906001019062000206565b5b50905062000233919062000237565b5090565b5b808211156200025257600081600090555060010162000238565b5090565b7f4e487b7100000000000000000000000000000000000000000000000000000000600052602260045260246000fd5b600060028204905060018216806200029e57607f821691505b602082108103620002b457620002b362000256565b5b50919050565b6140c480620002ca6000396000f3fe608060405234801561001057600080fd5b50600436106101a95760003560e01c80634f6ccce7116100f9578063a22cb46511610097578063e985e9c511610071578063e985e9c5146104f2578063eca81d4214610522578063f2fde38b1461053e578063f31eb4501461055a576101a9565b8063a22cb4651461048a578063b88d4fde146104a6578063c87b56dd146104c2576101a9565b8063715018a6116100d3578063715018a6146104145780638da5cb5b1461041e57806395d89b411461043c5780639d2b6fb01461045a576101a9565b80634f6ccce7146103845780636352211e146103b457806370a08231146103e4576101a9565b806318160ddd116101665780632f745c59116101405780632f745c59146102ea57806340398d671461031a57806342842e0e1461034c57806342966c6814610368576101a9565b806318160ddd14610280578063219144a01461029e57806323b872dd146102ce576101a9565b806301ffc9a7146101ae57806306fdde03146101de578063081812fc146101fc578063095ea7b31461022c578063162094c41461024857806317fc277b14610264575b600080fd5b6101c860048036038101906101c39190612a91565b610576565b6040516101d59190612ad9565b60405180910390f35b6101e6610588565b6040516101f39190612b8d565b60405180910390f35b61021660048036038101906102119190612be5565b61061a565b6040516102239190612c53565b60405180910390f35b61024660048036038101906102419190612c9a565b610660565b005b610262600480360381019061025d9190612e0f565b610777565b005b61027e60048036038101906102799190612ea1565b61078d565b005b6102886107d4565b6040516102959190612f1f565b60405180910390f35b6102b860048036038101906102b39190612be5565b6107e1565b6040516102c59190612b8d565b60405180910390f35b6102e860048036038101906102e39190612f3a565b61088c565b005b61030460048036038101906102ff9190612c9a565b6108ec565b6040516103119190612f1f565b60405180910390f35b610334600480360381019061032f9190612f8d565b610991565b60405161034393929190613184565b60405180910390f35b61036660048036038101906103619190612f3a565b610c05565b005b610382600480360381019061037d9190612be5565b610c25565b005b61039e60048036038101906103999190612be5565b610c81565b6040516103ab9190612f1f565b60405180910390f35b6103ce60048036038101906103c99190612be5565b610cf2565b6040516103db9190612c53565b60405180910390f35b6103fe60048036038101906103f99190612f8d565b610da3565b60405161040b9190612f1f565b60405180910390f35b61041c610e5a565b005b610426610e6e565b6040516104339190612c53565b60405180910390f35b610444610e98565b6040516104519190612b8d565b60405180910390f35b610474600480360381019061046f9190612be5565b610f2a565b604051610481919061321c565b60405180910390f35b6104a4600480360381019061049f919061326a565b610ff3565b005b6104c060048036038101906104bb919061334b565b611009565b005b6104dc60048036038101906104d79190612be5565b61106b565b6040516104e99190612b8d565b60405180910390f35b61050c600480360381019061050791906133ce565b61107d565b6040516105199190612ad9565b60405180910390f35b61053c6004803603810190610537919061340e565b611111565b005b61055860048036038101906105539190612f8d565b6111f9565b005b610574600480360381019061056f9190612e0f565b61127c565b005b6000610581826112b0565b9050919050565b606060008054610597906134c8565b80601f01602080910402602001604051908101604052809291908181526020018280546105c3906134c8565b80156106105780601f106105e557610100808354040283529160200191610610565b820191906000526020600020905b8154815290600101906020018083116105f357829003601f168201915b5050505050905090565b60006106258261132a565b6004600083815260200190815260200160002060009054906101000a900473ffffffffffffffffffffffffffffffffffffffff169050919050565b600061066b82610cf2565b90508073ffffffffffffffffffffffffffffffffffffffff168373ffffffffffffffffffffffffffffffffffffffff16036106db576040517f08c379a00000000000000000000000000000000000000000000000000000000081526004016106d29061356b565b60405180910390fd5b8073ffffffffffffffffffffffffffffffffffffffff166106fa611375565b73ffffffffffffffffffffffffffffffffffffffff161480610729575061072881610723611375565b61107d565b5b610768576040517f08c379a000000000000000000000000000000000000000000000000000000000815260040161075f906135fd565b60405180910390fd5b610772838361137d565b505050565b61077f611436565b61078982826114b4565b5050565b610795611436565b6000600e60008581526020019081526020016000209050828160000190805190602001906107c4929190612928565b5081816001018190555050505050565b6000600880549050905090565b60606000600d60008481526020019081526020016000208054610803906134c8565b80601f016020809104026020016040519081016040528092919081815260200182805461082f906134c8565b801561087c5780601f106108515761010080835404028352916020019161087c565b820191906000526020600020905b81548152906001019060200180831161085f57829003601f168201915b5050505050905080915050919050565b61089d610897611375565b82611528565b6108dc576040517f08c379a00000000000000000000000000000000000000000000000000000000081526004016108d39061368f565b60405180910390fd5b6108e78383836115bd565b505050565b60006108f783610da3565b8210610938576040517f08c379a000000000000000000000000000000000000000000000000000000000815260040161092f90613721565b60405180910390fd5b600660008473ffffffffffffffffffffffffffffffffffffffff1673ffffffffffffffffffffffffffffffffffffffff168152602001908152602001600020600083815260200190815260200160002054905092915050565b606080606060006109a185610da3565b905060008167ffffffffffffffff8111156109bf576109be612ce4565b5b6040519080825280602002602001820160405280156109ed5781602001602082028036833780820191505090505b50905060008267ffffffffffffffff811115610a0c57610a0b612ce4565b5b604051908082528060200260200182016040528015610a3f57816020015b6060815260200190600190039081610a2a5790505b50905060008367ffffffffffffffff811115610a5e57610a5d612ce4565b5b604051908082528060200260200182016040528015610a9157816020015b6060815260200190600190039081610a7c5790505b50905060005b84811015610bf057610aa989826108ec565b848281518110610abc57610abb613741565b5b602002602001018181525050610aeb848281518110610ade57610add613741565b5b602002602001015161106b565b838281518110610afe57610afd613741565b5b6020026020010181905250600d6000858381518110610b2057610b1f613741565b5b602002602001015181526020019081526020016000208054610b41906134c8565b80601f0160208091040260200160405190810160405280929190818152602001828054610b6d906134c8565b8015610bba5780601f10610b8f57610100808354040283529160200191610bba565b820191906000526020600020905b815481529060010190602001808311610b9d57829003601f168201915b5050505050828281518110610bd257610bd1613741565b5b60200260200101819052508080610be89061379f565b915050610a97565b83838397509750975050505050509193909250565b610c2083838360405180602001604052806000815250611009565b505050565b610c36610c30611375565b82611528565b610c75576040517f08c379a0000000000000000000000000000000000000000000000000000000008152600401610c6c9061368f565b60405180910390fd5b610c7e81611823565b50565b6000610c8b6107d4565b8210610ccc576040517f08c379a0000000000000000000000000000000000000000000000000000000008152600401610cc390613859565b60405180910390fd5b60088281548110610ce057610cdf613741565b5b90600052602060002001549050919050565b6000806002600084815260200190815260200160002060009054906101000a900473ffffffffffffffffffffffffffffffffffffffff169050600073ffffffffffffffffffffffffffffffffffffffff168173ffffffffffffffffffffffffffffffffffffffff1603610d9a576040517f08c379a0000000000000000000000000000000000000000000000000000000008152600401610d91906138c5565b60405180910390fd5b80915050919050565b60008073ffffffffffffffffffffffffffffffffffffffff168273ffffffffffffffffffffffffffffffffffffffff1603610e13576040517f08c379a0000000000000000000000000000000000000000000000000000000008152600401610e0a90613957565b60405180910390fd5b600360008373ffffffffffffffffffffffffffffffffffffffff1673ffffffffffffffffffffffffffffffffffffffff168152602001908152602001600020549050919050565b610e62611436565b610e6c600061182f565b565b6000600b60009054906101000a900473ffffffffffffffffffffffffffffffffffffffff16905090565b606060018054610ea7906134c8565b80601f0160208091040260200160405190810160405280929190818152602001828054610ed3906134c8565b8015610f205780601f10610ef557610100808354040283529160200191610f20565b820191906000526020600020905b815481529060010190602001808311610f0357829003601f168201915b5050505050905090565b610f326129ae565b600e6000838152602001908152602001600020604051806040016040529081600082018054610f60906134c8565b80601f0160208091040260200160405190810160405280929190818152602001828054610f8c906134c8565b8015610fd95780601f10610fae57610100808354040283529160200191610fd9565b820191906000526020600020905b815481529060010190602001808311610fbc57829003601f168201915b505050505081526020016001820154815250509050919050565b611005610ffe611375565b83836118f5565b5050565b61101a611014611375565b83611528565b611059576040517f08c379a00000000000000000000000000000000000000000000000000000000081526004016110509061368f565b60405180910390fd5b61106584848484611a61565b50505050565b606061107682611abd565b9050919050565b6000600560008473ffffffffffffffffffffffffffffffffffffffff1673ffffffffffffffffffffffffffffffffffffffff16815260200190815260200160002060008373ffffffffffffffffffffffffffffffffffffffff1673ffffffffffffffffffffffffffffffffffffffff16815260200190815260200160002060009054906101000a900460ff16905092915050565b600061111d600c611bcf565b9050611129600c611bdd565b81600d60008381526020019081526020016000209080519060200190611150929190612928565b50600060405180604001604052806040518060400160405280600781526020017f617265615f6d320000000000000000000000000000000000000000000000000081525081526020016000815250905080600e600084815260200190815260200160002060008201518160000190805190602001906111d0929190612928565b50602082015181600101559050506111e88583611bf3565b6111f282856114b4565b5050505050565b611201611436565b600073ffffffffffffffffffffffffffffffffffffffff168173ffffffffffffffffffffffffffffffffffffffff1603611270576040517f08c379a0000000000000000000000000000000000000000000000000000000008152600401611267906139e9565b60405180910390fd5b6112798161182f565b50565b611284611436565b80600d600084815260200190815260200160002090805190602001906112ab929190612928565b505050565b60007f780e9d63000000000000000000000000000000000000000000000000000000007bffffffffffffffffffffffffffffffffffffffffffffffffffffffff1916827bffffffffffffffffffffffffffffffffffffffffffffffffffffffff19161480611323575061132282611c11565b5b9050919050565b61133381611cf3565b611372576040517f08c379a0000000000000000000000000000000000000000000000000000000008152600401611369906138c5565b60405180910390fd5b50565b600033905090565b816004600083815260200190815260200160002060006101000a81548173ffffffffffffffffffffffffffffffffffffffff021916908373ffffffffffffffffffffffffffffffffffffffff160217905550808273ffffffffffffffffffffffffffffffffffffffff166113f083610cf2565b73ffffffffffffffffffffffffffffffffffffffff167f8c5be1e5ebec7d5bd14f71427d1e84f3dd0314c0f7b2291e5b200ac8c7c3b92560405160405180910390a45050565b61143e611375565b73ffffffffffffffffffffffffffffffffffffffff1661145c610e6e565b73ffffffffffffffffffffffffffffffffffffffff16146114b2576040517f08c379a00000000000000000000000000000000000000000000000000000000081526004016114a990613a55565b60405180910390fd5b565b6114bd82611cf3565b6114fc576040517f08c379a00000000000000000000000000000000000000000000000000000000081526004016114f390613ae7565b60405180910390fd5b80600a60008481526020019081526020016000209080519060200190611523929190612928565b505050565b60008061153483610cf2565b90508073ffffffffffffffffffffffffffffffffffffffff168473ffffffffffffffffffffffffffffffffffffffff1614806115765750611575818561107d565b5b806115b457508373ffffffffffffffffffffffffffffffffffffffff1661159c8461061a565b73ffffffffffffffffffffffffffffffffffffffff16145b91505092915050565b8273ffffffffffffffffffffffffffffffffffffffff166115dd82610cf2565b73ffffffffffffffffffffffffffffffffffffffff1614611633576040517f08c379a000000000000000000000000000000000000000000000000000000000815260040161162a90613b79565b60405180910390fd5b600073ffffffffffffffffffffffffffffffffffffffff168273ffffffffffffffffffffffffffffffffffffffff16036116a2576040517f08c379a000000000000000000000000000000000000000000000000000000000815260040161169990613c0b565b60405180910390fd5b6116ad838383611d5f565b6116b860008261137d565b6001600360008573ffffffffffffffffffffffffffffffffffffffff1673ffffffffffffffffffffffffffffffffffffffff16815260200190815260200160002060008282546117089190613c2b565b925050819055506001600360008473ffffffffffffffffffffffffffffffffffffffff1673ffffffffffffffffffffffffffffffffffffffff168152602001908152602001600020600082825461175f9190613c5f565b92505081905550816002600083815260200190815260200160002060006101000a81548173ffffffffffffffffffffffffffffffffffffffff021916908373ffffffffffffffffffffffffffffffffffffffff160217905550808273ffffffffffffffffffffffffffffffffffffffff168473ffffffffffffffffffffffffffffffffffffffff167fddf252ad1be2c89b69c2b068fc378daa952ba7f163c4a11628f55a4df523b3ef60405160405180910390a461181e838383611d6f565b505050565b61182c81611d74565b50565b6000600b60009054906101000a900473ffffffffffffffffffffffffffffffffffffffff16905081600b60006101000a81548173ffffffffffffffffffffffffffffffffffffffff021916908373ffffffffffffffffffffffffffffffffffffffff1602179055508173ffffffffffffffffffffffffffffffffffffffff168173ffffffffffffffffffffffffffffffffffffffff167f8be0079c531659141344cd1fd0a4f28419497f9722a3daafe3b4186f6b6457e060405160405180910390a35050565b8173ffffffffffffffffffffffffffffffffffffffff168373ffffffffffffffffffffffffffffffffffffffff1603611963576040517f08c379a000000000000000000000000000000000000000000000000000000000815260040161195a90613d01565b60405180910390fd5b80600560008573ffffffffffffffffffffffffffffffffffffffff1673ffffffffffffffffffffffffffffffffffffffff16815260200190815260200160002060008473ffffffffffffffffffffffffffffffffffffffff1673ffffffffffffffffffffffffffffffffffffffff16815260200190815260200160002060006101000a81548160ff0219169083151502179055508173ffffffffffffffffffffffffffffffffffffffff168373ffffffffffffffffffffffffffffffffffffffff167f17307eab39ab6107e8899845ad3d59bd9653f200f220920489ca2b5937696c3183604051611a549190612ad9565b60405180910390a3505050565b611a6c8484846115bd565b611a7884848484611dc7565b611ab7576040517f08c379a0000000000000000000000000000000000000000000000000000000008152600401611aae90613d93565b60405180910390fd5b50505050565b6060611ac88261132a565b6000600a60008481526020019081526020016000208054611ae8906134c8565b80601f0160208091040260200160405190810160405280929190818152602001828054611b14906134c8565b8015611b615780601f10611b3657610100808354040283529160200191611b61565b820191906000526020600020905b815481529060010190602001808311611b4457829003601f168201915b505050505090506000611b72611f4e565b90506000815103611b87578192505050611bca565b600082511115611bbc578082604051602001611ba4929190613def565b60405160208183030381529060405292505050611bca565b611bc584611f65565b925050505b919050565b600081600001549050919050565b6001816000016000828254019250508190555050565b611c0d828260405180602001604052806000815250611fcd565b5050565b60007f80ac58cd000000000000000000000000000000000000000000000000000000007bffffffffffffffffffffffffffffffffffffffffffffffffffffffff1916827bffffffffffffffffffffffffffffffffffffffffffffffffffffffff19161480611cdc57507f5b5e139f000000000000000000000000000000000000000000000000000000007bffffffffffffffffffffffffffffffffffffffffffffffffffffffff1916827bffffffffffffffffffffffffffffffffffffffffffffffffffffffff1916145b80611cec5750611ceb82612028565b5b9050919050565b60008073ffffffffffffffffffffffffffffffffffffffff166002600084815260200190815260200160002060009054906101000a900473ffffffffffffffffffffffffffffffffffffffff1673ffffffffffffffffffffffffffffffffffffffff1614159050919050565b611d6a838383612092565b505050565b505050565b611d7d816121a4565b6000600a60008381526020019081526020016000208054611d9d906134c8565b905014611dc457600a60008281526020019081526020016000206000611dc391906129c8565b5b50565b6000611de88473ffffffffffffffffffffffffffffffffffffffff166122c1565b15611f41578373ffffffffffffffffffffffffffffffffffffffff1663150b7a02611e11611375565b8786866040518563ffffffff1660e01b8152600401611e339493929190613e68565b6020604051808303816000875af1925050508015611e6f57506040513d601f19601f82011682018060405250810190611e6c9190613ec9565b60015b611ef1573d8060008114611e9f576040519150601f19603f3d011682016040523d82523d6000602084013e611ea4565b606091505b506000815103611ee9576040517f08c379a0000000000000000000000000000000000000000000000000000000008152600401611ee090613d93565b60405180910390fd5b805181602001fd5b63150b7a0260e01b7bffffffffffffffffffffffffffffffffffffffffffffffffffffffff1916817bffffffffffffffffffffffffffffffffffffffffffffffffffffffff191614915050611f46565b600190505b949350505050565b606060405180602001604052806000815250905090565b6060611f708261132a565b6000611f7a611f4e565b90506000815111611f9a5760405180602001604052806000815250611fc5565b80611fa4846122e4565b604051602001611fb5929190613def565b6040516020818303038152906040525b915050919050565b611fd78383612444565b611fe46000848484611dc7565b612023576040517f08c379a000000000000000000000000000000000000000000000000000000000815260040161201a90613d93565b60405180910390fd5b505050565b60007f01ffc9a7000000000000000000000000000000000000000000000000000000007bffffffffffffffffffffffffffffffffffffffffffffffffffffffff1916827bffffffffffffffffffffffffffffffffffffffffffffffffffffffff1916149050919050565b61209d83838361261d565b600073ffffffffffffffffffffffffffffffffffffffff168373ffffffffffffffffffffffffffffffffffffffff16036120df576120da81612622565b61211e565b8173ffffffffffffffffffffffffffffffffffffffff168373ffffffffffffffffffffffffffffffffffffffff161461211d5761211c838261266b565b5b5b600073ffffffffffffffffffffffffffffffffffffffff168273ffffffffffffffffffffffffffffffffffffffff16036121605761215b816127d8565b61219f565b8273ffffffffffffffffffffffffffffffffffffffff168273ffffffffffffffffffffffffffffffffffffffff161461219e5761219d82826128a9565b5b5b505050565b60006121af82610cf2565b90506121bd81600084611d5f565b6121c860008361137d565b6001600360008373ffffffffffffffffffffffffffffffffffffffff1673ffffffffffffffffffffffffffffffffffffffff16815260200190815260200160002060008282546122189190613c2b565b925050819055506002600083815260200190815260200160002060006101000a81549073ffffffffffffffffffffffffffffffffffffffff021916905581600073ffffffffffffffffffffffffffffffffffffffff168273ffffffffffffffffffffffffffffffffffffffff167fddf252ad1be2c89b69c2b068fc378daa952ba7f163c4a11628f55a4df523b3ef60405160405180910390a46122bd81600084611d6f565b5050565b6000808273ffffffffffffffffffffffffffffffffffffffff163b119050919050565b60606000820361232b576040518060400160405280600181526020017f3000000000000000000000000000000000000000000000000000000000000000815250905061243f565b600082905060005b6000821461235d5780806123469061379f565b915050600a826123569190613f25565b9150612333565b60008167ffffffffffffffff81111561237957612378612ce4565b5b6040519080825280601f01601f1916602001820160405280156123ab5781602001600182028036833780820191505090505b5090505b60008514612438576001826123c49190613c2b565b9150600a856123d39190613f56565b60306123df9190613c5f565b60f81b8183815181106123f5576123f4613741565b5b60200101907effffffffffffffffffffffffffffffffffffffffffffffffffffffffffffff1916908160001a905350600a856124319190613f25565b94506123af565b8093505050505b919050565b600073ffffffffffffffffffffffffffffffffffffffff168273ffffffffffffffffffffffffffffffffffffffff16036124b3576040517f08c379a00000000000000000000000000000000000000000000000000000000081526004016124aa90613fd3565b60405180910390fd5b6124bc81611cf3565b156124fc576040517f08c379a00000000000000000000000000000000000000000000000000000000081526004016124f39061403f565b60405180910390fd5b61250860008383611d5f565b6001600360008473ffffffffffffffffffffffffffffffffffffffff1673ffffffffffffffffffffffffffffffffffffffff16815260200190815260200160002060008282546125589190613c5f565b92505081905550816002600083815260200190815260200160002060006101000a81548173ffffffffffffffffffffffffffffffffffffffff021916908373ffffffffffffffffffffffffffffffffffffffff160217905550808273ffffffffffffffffffffffffffffffffffffffff16600073ffffffffffffffffffffffffffffffffffffffff167fddf252ad1be2c89b69c2b068fc378daa952ba7f163c4a11628f55a4df523b3ef60405160405180910390a461261960008383611d6f565b5050565b505050565b6008805490506009600083815260200190815260200160002081905550600881908060018154018082558091505060019003906000526020600020016000909190919091505550565b6000600161267884610da3565b6126829190613c2b565b9050600060076000848152602001908152602001600020549050818114612767576000600660008673ffffffffffffffffffffffffffffffffffffffff1673ffffffffffffffffffffffffffffffffffffffff168152602001908152602001600020600084815260200190815260200160002054905080600660008773ffffffffffffffffffffffffffffffffffffffff1673ffffffffffffffffffffffffffffffffffffffff168152602001908152602001600020600084815260200190815260200160002081905550816007600083815260200190815260200160002081905550505b6007600084815260200190815260200160002060009055600660008573ffffffffffffffffffffffffffffffffffffffff1673ffffffffffffffffffffffffffffffffffffffff16815260200190815260200160002060008381526020019081526020016000206000905550505050565b600060016008805490506127ec9190613c2b565b905060006009600084815260200190815260200160002054905060006008838154811061281c5761281b613741565b5b90600052602060002001549050806008838154811061283e5761283d613741565b5b90600052602060002001819055508160096000838152602001908152602001600020819055506009600085815260200190815260200160002060009055600880548061288d5761288c61405f565b5b6001900381819060005260206000200160009055905550505050565b60006128b483610da3565b905081600660008573ffffffffffffffffffffffffffffffffffffffff1673ffffffffffffffffffffffffffffffffffffffff168152602001908152602001600020600083815260200190815260200160002081905550806007600084815260200190815260200160002081905550505050565b828054612934906134c8565b90600052602060002090601f016020900481019282612956576000855561299d565b82601f1061296f57805160ff191683800117855561299d565b8280016001018555821561299d579182015b8281111561299c578251825591602001919060010190612981565b5b5090506129aa9190612a08565b5090565b604051806040016040528060608152602001600081525090565b5080546129d4906134c8565b6000825580601f106129e65750612a05565b601f016020900490600052602060002090810190612a049190612a08565b5b50565b5b80821115612a21576000816000905550600101612a09565b5090565b6000604051905090565b600080fd5b600080fd5b60007fffffffff0000000000000000000000000000000000000000000000000000000082169050919050565b612a6e81612a39565b8114612a7957600080fd5b50565b600081359050612a8b81612a65565b92915050565b600060208284031215612aa757612aa6612a2f565b5b6000612ab584828501612a7c565b91505092915050565b60008115159050919050565b612ad381612abe565b82525050565b6000602082019050612aee6000830184612aca565b92915050565b600081519050919050565b600082825260208201905092915050565b60005b83811015612b2e578082015181840152602081019050612b13565b83811115612b3d576000848401525b50505050565b6000601f19601f8301169050919050565b6000612b5f82612af4565b612b698185612aff565b9350612b79818560208601612b10565b612b8281612b43565b840191505092915050565b60006020820190508181036000830152612ba78184612b54565b905092915050565b6000819050919050565b612bc281612baf565b8114612bcd57600080fd5b50565b600081359050612bdf81612bb9565b92915050565b600060208284031215612bfb57612bfa612a2f565b5b6000612c0984828501612bd0565b91505092915050565b600073ffffffffffffffffffffffffffffffffffffffff82169050919050565b6000612c3d82612c12565b9050919050565b612c4d81612c32565b82525050565b6000602082019050612c686000830184612c44565b92915050565b612c7781612c32565b8114612c8257600080fd5b50565b600081359050612c9481612c6e565b92915050565b60008060408385031215612cb157612cb0612a2f565b5b6000612cbf85828601612c85565b9250506020612cd085828601612bd0565b9150509250929050565b600080fd5b600080fd5b7f4e487b7100000000000000000000000000000000000000000000000000000000600052604160045260246000fd5b612d1c82612b43565b810181811067ffffffffffffffff82111715612d3b57612d3a612ce4565b5b80604052505050565b6000612d4e612a25565b9050612d5a8282612d13565b919050565b600067ffffffffffffffff821115612d7a57612d79612ce4565b5b612d8382612b43565b9050602081019050919050565b82818337600083830152505050565b6000612db2612dad84612d5f565b612d44565b905082815260208101848484011115612dce57612dcd612cdf565b5b612dd9848285612d90565b509392505050565b600082601f830112612df657612df5612cda565b5b8135612e06848260208601612d9f565b91505092915050565b60008060408385031215612e2657612e25612a2f565b5b6000612e3485828601612bd0565b925050602083013567ffffffffffffffff811115612e5557612e54612a34565b5b612e6185828601612de1565b9150509250929050565b6000819050919050565b612e7e81612e6b565b8114612e8957600080fd5b50565b600081359050612e9b81612e75565b92915050565b600080600060608486031215612eba57612eb9612a2f565b5b6000612ec886828701612bd0565b935050602084013567ffffffffffffffff811115612ee957612ee8612a34565b5b612ef586828701612de1565b9250506040612f0686828701612e8c565b9150509250925092565b612f1981612baf565b82525050565b6000602082019050612f346000830184612f10565b92915050565b600080600060608486031215612f5357612f52612a2f565b5b6000612f6186828701612c85565b9350506020612f7286828701612c85565b9250506040612f8386828701612bd0565b9150509250925092565b600060208284031215612fa357612fa2612a2f565b5b6000612fb184828501612c85565b91505092915050565b600081519050919050565b600082825260208201905092915050565b6000819050602082019050919050565b612fef81612baf565b82525050565b60006130018383612fe6565b60208301905092915050565b6000602082019050919050565b600061302582612fba565b61302f8185612fc5565b935061303a83612fd6565b8060005b8381101561306b5781516130528882612ff5565b975061305d8361300d565b92505060018101905061303e565b5085935050505092915050565b600081519050919050565b600082825260208201905092915050565b6000819050602082019050919050565b600082825260208201905092915050565b60006130c082612af4565b6130ca81856130a4565b93506130da818560208601612b10565b6130e381612b43565b840191505092915050565b60006130fa83836130b5565b905092915050565b6000602082019050919050565b600061311a82613078565b6131248185613083565b93508360208202850161313685613094565b8060005b85811015613172578484038952815161315385826130ee565b945061315e83613102565b925060208a0199505060018101905061313a565b50829750879550505050505092915050565b6000606082019050818103600083015261319e818661301a565b905081810360208301526131b2818561310f565b905081810360408301526131c6818461310f565b9050949350505050565b6131d981612e6b565b82525050565b600060408301600083015184820360008601526131fc82826130b5565b915050602083015161321160208601826131d0565b508091505092915050565b6000602082019050818103600083015261323681846131df565b905092915050565b61324781612abe565b811461325257600080fd5b50565b6000813590506132648161323e565b92915050565b6000806040838503121561328157613280612a2f565b5b600061328f85828601612c85565b92505060206132a085828601613255565b9150509250929050565b600067ffffffffffffffff8211156132c5576132c4612ce4565b5b6132ce82612b43565b9050602081019050919050565b60006132ee6132e9846132aa565b612d44565b90508281526020810184848401111561330a57613309612cdf565b5b613315848285612d90565b509392505050565b600082601f83011261333257613331612cda565b5b81356133428482602086016132db565b91505092915050565b6000806000806080858703121561336557613364612a2f565b5b600061337387828801612c85565b945050602061338487828801612c85565b935050604061339587828801612bd0565b925050606085013567ffffffffffffffff8111156133b6576133b5612a34565b5b6133c28782880161331d565b91505092959194509250565b600080604083850312156133e5576133e4612a2f565b5b60006133f385828601612c85565b925050602061340485828601612c85565b9150509250929050565b60008060006060848603121561342757613426612a2f565b5b600061343586828701612c85565b935050602084013567ffffffffffffffff81111561345657613455612a34565b5b61346286828701612de1565b925050604084013567ffffffffffffffff81111561348357613482612a34565b5b61348f86828701612de1565b9150509250925092565b7f4e487b7100000000000000000000000000000000000000000000000000000000600052602260045260246000fd5b600060028204905060018216806134e057607f821691505b6020821081036134f3576134f2613499565b5b50919050565b7f4552433732313a20617070726f76616c20746f2063757272656e74206f776e6560008201527f7200000000000000000000000000000000000000000000000000000000000000602082015250565b6000613555602183612aff565b9150613560826134f9565b604082019050919050565b6000602082019050818103600083015261358481613548565b9050919050565b7f4552433732313a20617070726f76652063616c6c6572206973206e6f7420746f60008201527f6b656e206f776e6572206e6f7220617070726f76656420666f7220616c6c0000602082015250565b60006135e7603e83612aff565b91506135f28261358b565b604082019050919050565b60006020820190508181036000830152613616816135da565b9050919050565b7f4552433732313a2063616c6c6572206973206e6f7420746f6b656e206f776e6560008201527f72206e6f7220617070726f766564000000000000000000000000000000000000602082015250565b6000613679602e83612aff565b91506136848261361d565b604082019050919050565b600060208201905081810360008301526136a88161366c565b9050919050565b7f455243373231456e756d657261626c653a206f776e657220696e646578206f7560008201527f74206f6620626f756e6473000000000000000000000000000000000000000000602082015250565b600061370b602b83612aff565b9150613716826136af565b604082019050919050565b6000602082019050818103600083015261373a816136fe565b9050919050565b7f4e487b7100000000000000000000000000000000000000000000000000000000600052603260045260246000fd5b7f4e487b7100000000000000000000000000000000000000000000000000000000600052601160045260246000fd5b60006137aa82612baf565b91507fffffffffffffffffffffffffffffffffffffffffffffffffffffffffffffffff82036137dc576137db613770565b5b600182019050919050565b7f455243373231456e756d657261626c653a20676c6f62616c20696e646578206f60008201527f7574206f6620626f756e64730000000000000000000000000000000000000000602082015250565b6000613843602c83612aff565b915061384e826137e7565b604082019050919050565b6000602082019050818103600083015261387281613836565b9050919050565b7f4552433732313a20696e76616c696420746f6b656e2049440000000000000000600082015250565b60006138af601883612aff565b91506138ba82613879565b602082019050919050565b600060208201905081810360008301526138de816138a2565b9050919050565b7f4552433732313a2061646472657373207a65726f206973206e6f74206120766160008201527f6c6964206f776e65720000000000000000000000000000000000000000000000602082015250565b6000613941602983612aff565b915061394c826138e5565b604082019050919050565b6000602082019050818103600083015261397081613934565b9050919050565b7f4f776e61626c653a206e6577206f776e657220697320746865207a65726f206160008201527f6464726573730000000000000000000000000000000000000000000000000000602082015250565b60006139d3602683612aff565b91506139de82613977565b604082019050919050565b60006020820190508181036000830152613a02816139c6565b9050919050565b7f4f776e61626c653a2063616c6c6572206973206e6f7420746865206f776e6572600082015250565b6000613a3f602083612aff565b9150613a4a82613a09565b602082019050919050565b60006020820190508181036000830152613a6e81613a32565b9050919050565b7f45524337323155524953746f726167653a2055524920736574206f66206e6f6e60008201527f6578697374656e7420746f6b656e000000000000000000000000000000000000602082015250565b6000613ad1602e83612aff565b9150613adc82613a75565b604082019050919050565b60006020820190508181036000830152613b0081613ac4565b9050919050565b7f4552433732313a207472616e736665722066726f6d20696e636f72726563742060008201527f6f776e6572000000000000000000000000000000000000000000000000000000602082015250565b6000613b63602583612aff565b9150613b6e82613b07565b604082019050919050565b60006020820190508181036000830152613b9281613b56565b9050919050565b7f4552433732313a207472616e7366657220746f20746865207a65726f2061646460008201527f7265737300000000000000000000000000000000000000000000000000000000602082015250565b6000613bf5602483612aff565b9150613c0082613b99565b604082019050919050565b60006020820190508181036000830152613c2481613be8565b9050919050565b6000613c3682612baf565b9150613c4183612baf565b925082821015613c5457613c53613770565b5b828203905092915050565b6000613c6a82612baf565b9150613c7583612baf565b9250827fffffffffffffffffffffffffffffffffffffffffffffffffffffffffffffffff03821115613caa57613ca9613770565b5b828201905092915050565b7f4552433732313a20617070726f766520746f2063616c6c657200000000000000600082015250565b6000613ceb601983612aff565b9150613cf682613cb5565b602082019050919050565b60006020820190508181036000830152613d1a81613cde565b9050919050565b7f4552433732313a207472616e7366657220746f206e6f6e20455243373231526560008201527f63656976657220696d706c656d656e7465720000000000000000000000000000602082015250565b6000613d7d603283612aff565b9150613d8882613d21565b604082019050919050565b60006020820190508181036000830152613dac81613d70565b9050919050565b600081905092915050565b6000613dc982612af4565b613dd38185613db3565b9350613de3818560208601612b10565b80840191505092915050565b6000613dfb8285613dbe565b9150613e078284613dbe565b91508190509392505050565b600081519050919050565b600082825260208201905092915050565b6000613e3a82613e13565b613e448185613e1e565b9350613e54818560208601612b10565b613e5d81612b43565b840191505092915050565b6000608082019050613e7d6000830187612c44565b613e8a6020830186612c44565b613e976040830185612f10565b8181036060830152613ea98184613e2f565b905095945050505050565b600081519050613ec381612a65565b92915050565b600060208284031215613edf57613ede612a2f565b5b6000613eed84828501613eb4565b91505092915050565b7f4e487b7100000000000000000000000000000000000000000000000000000000600052601260045260246000fd5b6000613f3082612baf565b9150613f3b83612baf565b925082613f4b57613f4a613ef6565b5b828204905092915050565b6000613f6182612baf565b9150613f6c83612baf565b925082613f7c57613f7b613ef6565b5b828206905092915050565b7f4552433732313a206d696e7420746f20746865207a65726f2061646472657373600082015250565b6000613fbd602083612aff565b9150613fc882613f87565b602082019050919050565b60006020820190508181036000830152613fec81613fb0565b9050919050565b7f4552433732313a20746f6b656e20616c7265616479206d696e74656400000000600082015250565b6000614029601c83612aff565b915061403482613ff3565b602082019050919050565b600060208201905081810360008301526140588161401c565b9050919050565b7f4e487b7100000000000000000000000000000000000000000000000000000000600052603160045260246000fdfea26469706673582212207c11455145bec3524d8c3ea903af000739a4075fe84f02a8625843d3120ec0d464736f6c634300080d0033",
  "devdoc": {
    "kind": "dev",
    "methods": {
      "approve(address,uint256)": {
        "details": "See {IERC721-approve}."
      },
      "balanceOf(address)": {
        "details": "See {IERC721-balanceOf}."
      },
      "burn(uint256)": {
        "details": "Burns `tokenId`. See {ERC721-_burn}. Requirements: - The caller must own `tokenId` or be an approved operator."
      },
      "getApproved(uint256)": {
        "details": "See {IERC721-getApproved}."
      },
      "isApprovedForAll(address,address)": {
        "details": "See {IERC721-isApprovedForAll}."
      },
      "name()": {
        "details": "See {IERC721Metadata-name}."
      },
      "owner()": {
        "details": "Returns the address of the current owner."
      },
      "ownerOf(uint256)": {
        "details": "See {IERC721-ownerOf}."
      },
      "renounceOwnership()": {
        "details": "Leaves the contract without owner. It will not be possible to call `onlyOwner` functions anymore. Can only be called by the current owner. NOTE: Renouncing ownership will leave the contract without an owner, thereby removing any functionality that is only available to the owner."
      },
      "safeTransferFrom(address,address,uint256)": {
        "details": "See {IERC721-safeTransferFrom}."
      },
      "safeTransferFrom(address,address,uint256,bytes)": {
        "details": "See {IERC721-safeTransferFrom}."
      },
      "setApprovalForAll(address,bool)": {
        "details": "See {IERC721-setApprovalForAll}."
      },
      "symbol()": {
        "details": "See {IERC721Metadata-symbol}."
      },
      "tokenByIndex(uint256)": {
        "details": "See {IERC721Enumerable-tokenByIndex}."
      },
      "tokenOfOwnerByIndex(address,uint256)": {
        "details": "See {IERC721Enumerable-tokenOfOwnerByIndex}."
      },
      "totalSupply()": {
        "details": "See {IERC721Enumerable-totalSupply}."
      },
      "transferFrom(address,address,uint256)": {
        "details": "See {IERC721-transferFrom}."
      },
      "transferOwnership(address)": {
        "details": "Transfers ownership of the contract to a new account (`newOwner`). Can only be called by the current owner."
      }
    },
    "version": 1
  },
  "userdoc": {
    "kind": "user",
    "methods": {},
    "version": 1
  },
  "storageLayout": {
    "storage": [
      {
        "astId": 178,
        "contract": "contracts/GeoNFT.sol:GeoNFT",
        "label": "_name",
        "offset": 0,
        "slot": "0",
        "type": "t_string_storage"
      },
      {
        "astId": 180,
        "contract": "contracts/GeoNFT.sol:GeoNFT",
        "label": "_symbol",
        "offset": 0,
        "slot": "1",
        "type": "t_string_storage"
      },
      {
        "astId": 184,
        "contract": "contracts/GeoNFT.sol:GeoNFT",
        "label": "_owners",
        "offset": 0,
        "slot": "2",
        "type": "t_mapping(t_uint256,t_address)"
      },
      {
        "astId": 188,
        "contract": "contracts/GeoNFT.sol:GeoNFT",
        "label": "_balances",
        "offset": 0,
        "slot": "3",
        "type": "t_mapping(t_address,t_uint256)"
      },
      {
        "astId": 192,
        "contract": "contracts/GeoNFT.sol:GeoNFT",
        "label": "_tokenApprovals",
        "offset": 0,
        "slot": "4",
        "type": "t_mapping(t_uint256,t_address)"
      },
      {
        "astId": 198,
        "contract": "contracts/GeoNFT.sol:GeoNFT",
        "label": "_operatorApprovals",
        "offset": 0,
        "slot": "5",
        "type": "t_mapping(t_address,t_mapping(t_address,t_bool))"
      },
      {
        "astId": 1198,
        "contract": "contracts/GeoNFT.sol:GeoNFT",
        "label": "_ownedTokens",
        "offset": 0,
        "slot": "6",
        "type": "t_mapping(t_address,t_mapping(t_uint256,t_uint256))"
      },
      {
        "astId": 1202,
        "contract": "contracts/GeoNFT.sol:GeoNFT",
        "label": "_ownedTokensIndex",
        "offset": 0,
        "slot": "7",
        "type": "t_mapping(t_uint256,t_uint256)"
      },
      {
        "astId": 1205,
        "contract": "contracts/GeoNFT.sol:GeoNFT",
        "label": "_allTokens",
        "offset": 0,
        "slot": "8",
        "type": "t_array(t_uint256)dyn_storage"
      },
      {
        "astId": 1209,
        "contract": "contracts/GeoNFT.sol:GeoNFT",
        "label": "_allTokensIndex",
        "offset": 0,
        "slot": "9",
        "type": "t_mapping(t_uint256,t_uint256)"
      },
      {
        "astId": 1534,
        "contract": "contracts/GeoNFT.sol:GeoNFT",
        "label": "_tokenURIs",
        "offset": 0,
        "slot": "10",
        "type": "t_mapping(t_uint256,t_string_storage)"
      },
      {
        "astId": 7,
        "contract": "contracts/GeoNFT.sol:GeoNFT",
        "label": "_owner",
        "offset": 0,
        "slot": "11",
        "type": "t_address"
      },
      {
        "astId": 2382,
        "contract": "contracts/GeoNFT.sol:GeoNFT",
        "label": "_tokenIdCounter",
        "offset": 0,
        "slot": "12",
        "type": "t_struct(Counter)2027_storage"
      },
      {
        "astId": 2391,
        "contract": "contracts/GeoNFT.sol:GeoNFT",
        "label": "geoJsons",
        "offset": 0,
        "slot": "13",
        "type": "t_mapping(t_uint256,t_string_storage)"
      },
      {
        "astId": 2396,
        "contract": "contracts/GeoNFT.sol:GeoNFT",
        "label": "ecologicalIndexMap",
        "offset": 0,
        "slot": "14",
        "type": "t_mapping(t_uint256,t_struct(EcologicalIndex)2387_storage)"
      }
    ],
    "types": {
      "t_address": {
        "encoding": "inplace",
        "label": "address",
        "numberOfBytes": "20"
      },
      "t_array(t_uint256)dyn_storage": {
        "base": "t_uint256",
        "encoding": "dynamic_array",
        "label": "uint256[]",
        "numberOfBytes": "32"
      },
      "t_bool": {
        "encoding": "inplace",
        "label": "bool",
        "numberOfBytes": "1"
      },
      "t_int256": {
        "encoding": "inplace",
        "label": "int256",
        "numberOfBytes": "32"
      },
      "t_mapping(t_address,t_bool)": {
        "encoding": "mapping",
        "key": "t_address",
        "label": "mapping(address => bool)",
        "numberOfBytes": "32",
        "value": "t_bool"
      },
      "t_mapping(t_address,t_mapping(t_address,t_bool))": {
        "encoding": "mapping",
        "key": "t_address",
        "label": "mapping(address => mapping(address => bool))",
        "numberOfBytes": "32",
        "value": "t_mapping(t_address,t_bool)"
      },
      "t_mapping(t_address,t_mapping(t_uint256,t_uint256))": {
        "encoding": "mapping",
        "key": "t_address",
        "label": "mapping(address => mapping(uint256 => uint256))",
        "numberOfBytes": "32",
        "value": "t_mapping(t_uint256,t_uint256)"
      },
      "t_mapping(t_address,t_uint256)": {
        "encoding": "mapping",
        "key": "t_address",
        "label": "mapping(address => uint256)",
        "numberOfBytes": "32",
        "value": "t_uint256"
      },
      "t_mapping(t_uint256,t_address)": {
        "encoding": "mapping",
        "key": "t_uint256",
        "label": "mapping(uint256 => address)",
        "numberOfBytes": "32",
        "value": "t_address"
      },
      "t_mapping(t_uint256,t_string_storage)": {
        "encoding": "mapping",
        "key": "t_uint256",
        "label": "mapping(uint256 => string)",
        "numberOfBytes": "32",
        "value": "t_string_storage"
      },
      "t_mapping(t_uint256,t_struct(EcologicalIndex)2387_storage)": {
        "encoding": "mapping",
        "key": "t_uint256",
        "label": "mapping(uint256 => struct GeoNFT.EcologicalIndex)",
        "numberOfBytes": "32",
        "value": "t_struct(EcologicalIndex)2387_storage"
      },
      "t_mapping(t_uint256,t_uint256)": {
        "encoding": "mapping",
        "key": "t_uint256",
        "label": "mapping(uint256 => uint256)",
        "numberOfBytes": "32",
        "value": "t_uint256"
      },
      "t_string_storage": {
        "encoding": "bytes",
        "label": "string",
        "numberOfBytes": "32"
      },
      "t_struct(Counter)2027_storage": {
        "encoding": "inplace",
        "label": "struct Counters.Counter",
        "members": [
          {
            "astId": 2026,
            "contract": "contracts/GeoNFT.sol:GeoNFT",
            "label": "_value",
            "offset": 0,
            "slot": "0",
            "type": "t_uint256"
          }
        ],
        "numberOfBytes": "32"
      },
      "t_struct(EcologicalIndex)2387_storage": {
        "encoding": "inplace",
        "label": "struct GeoNFT.EcologicalIndex",
        "members": [
          {
            "astId": 2384,
            "contract": "contracts/GeoNFT.sol:GeoNFT",
            "label": "indexType",
            "offset": 0,
            "slot": "0",
            "type": "t_string_storage"
          },
          {
            "astId": 2386,
            "contract": "contracts/GeoNFT.sol:GeoNFT",
            "label": "indexValue",
            "offset": 0,
            "slot": "1",
            "type": "t_int256"
          }
        ],
        "numberOfBytes": "64"
      },
      "t_uint256": {
        "encoding": "inplace",
        "label": "uint256",
        "numberOfBytes": "32"
      }
    }
  }
}